{
  "address": "0x76B10909Ff10b53c54387C66B083b1613E2276d3",
  "abi": [
    {
      "inputs": [
        {
          "internalType": "contract IEFSIndexer",
          "name": "_indexer",
          "type": "address"
        },
        {
          "internalType": "contract IEdgeResolverForFileView",
          "name": "_edgeResolver",
          "type": "address"
        }
      ],
      "stateMutability": "nonpayable",
      "type": "constructor"
    },
    {
      "inputs": [
        {
          "internalType": "bytes",
          "name": "data",
          "type": "bytes"
        }
      ],
      "name": "decodeName",
      "outputs": [
        {
          "internalType": "string",
          "name": "",
          "type": "string"
        }
      ],
      "stateMutability": "pure",
      "type": "function"
    },
    {
      "inputs": [],
      "name": "eas",
      "outputs": [
        {
          "internalType": "contract IEAS",
          "name": "",
          "type": "address"
        }
      ],
      "stateMutability": "view",
      "type": "function"
    },
    {
      "inputs": [],
      "name": "edgeResolver",
      "outputs": [
        {
          "internalType": "contract IEdgeResolverForFileView",
          "name": "",
          "type": "address"
        }
      ],
      "stateMutability": "view",
      "type": "function"
    },
    {
      "inputs": [
        {
          "internalType": "bytes32",
          "name": "",
          "type": "bytes32"
        }
      ],
      "name": "getCanonicalData",
      "outputs": [
        {
          "internalType": "bytes32",
          "name": "",
          "type": "bytes32"
        }
      ],
      "stateMutability": "pure",
      "type": "function"
    },
    {
      "inputs": [
        {
          "internalType": "bytes32",
          "name": "dataUID",
          "type": "bytes32"
        },
        {
          "internalType": "address",
          "name": "attester",
          "type": "address"
        },
        {
          "internalType": "uint256",
          "name": "start",
          "type": "uint256"
        },
        {
          "internalType": "uint256",
          "name": "length",
          "type": "uint256"
        }
      ],
      "name": "getDataMirrors",
      "outputs": [
        {
          "components": [
            {
              "internalType": "bytes32",
              "name": "uid",
              "type": "bytes32"
            },
            {
              "internalType": "bytes32",
              "name": "transportDefinition",
              "type": "bytes32"
            },
            {
              "internalType": "string",
              "name": "uri",
              "type": "string"
            },
            {
              "internalType": "address",
              "name": "attester",
              "type": "address"
            },
            {
              "internalType": "uint64",
              "name": "timestamp",
              "type": "uint64"
            }
          ],
          "internalType": "struct EFSFileView.MirrorItem[]",
          "name": "",
          "type": "tuple[]"
        }
      ],
      "stateMutability": "view",
      "type": "function"
    },
    {
      "inputs": [
        {
          "internalType": "bytes32",
          "name": "dataUID",
          "type": "bytes32"
        },
        {
          "internalType": "uint256",
          "name": "start",
          "type": "uint256"
        },
        {
          "internalType": "uint256",
          "name": "length",
          "type": "uint256"
        }
      ],
      "name": "getDataMirrorsAllAttesters",
      "outputs": [
        {
          "components": [
            {
              "internalType": "bytes32",
              "name": "uid",
              "type": "bytes32"
            },
            {
              "internalType": "bytes32",
              "name": "transportDefinition",
              "type": "bytes32"
            },
            {
              "internalType": "string",
              "name": "uri",
              "type": "string"
            },
            {
              "internalType": "address",
              "name": "attester",
              "type": "address"
            },
            {
              "internalType": "uint64",
              "name": "timestamp",
              "type": "uint64"
            }
          ],
          "internalType": "struct EFSFileView.MirrorItem[]",
          "name": "",
          "type": "tuple[]"
        }
      ],
      "stateMutability": "view",
      "type": "function"
    },
    {
      "inputs": [
        {
          "internalType": "bytes32",
          "name": "parentAnchor",
          "type": "bytes32"
        },
        {
          "internalType": "uint256",
          "name": "start",
          "type": "uint256"
        },
        {
          "internalType": "uint256",
          "name": "length",
          "type": "uint256"
        },
        {
          "internalType": "bytes32",
          "name": "dataSchemaUID",
          "type": "bytes32"
        },
        {
          "internalType": "bytes32",
          "name": "propertySchemaUID",
          "type": "bytes32"
        }
      ],
      "name": "getDirectoryPage",
      "outputs": [
        {
          "components": [
            {
              "internalType": "bytes32",
              "name": "uid",
              "type": "bytes32"
            },
            {
              "internalType": "string",
              "name": "name",
              "type": "string"
            },
            {
              "internalType": "bytes32",
              "name": "parentUID",
              "type": "bytes32"
            },
            {
              "internalType": "bool",
              "name": "isFolder",
              "type": "bool"
            },
            {
              "internalType": "bool",
              "name": "hasData",
              "type": "bool"
            },
            {
              "internalType": "uint256",
              "name": "childCount",
              "type": "uint256"
            },
            {
              "internalType": "uint256",
              "name": "propertyCount",
              "type": "uint256"
            },
            {
              "internalType": "uint64",
              "name": "timestamp",
              "type": "uint64"
            },
            {
              "internalType": "address",
              "name": "attester",
              "type": "address"
            },
            {
              "internalType": "bytes32",
              "name": "schema",
              "type": "bytes32"
            },
            {
              "internalType": "bytes32",
              "name": "contentHash",
              "type": "bytes32"
            }
          ],
          "internalType": "struct EFSFileView.FileSystemItem[]",
          "name": "",
          "type": "tuple[]"
        }
      ],
      "stateMutability": "view",
      "type": "function"
    },
    {
      "inputs": [
        {
          "internalType": "bytes32",
          "name": "parentAnchor",
          "type": "bytes32"
        },
        {
          "internalType": "address[]",
          "name": "attesters",
          "type": "address[]"
        },
        {
          "internalType": "uint256",
          "name": "startingCursor",
          "type": "uint256"
        },
        {
          "internalType": "uint256",
          "name": "pageSize",
          "type": "uint256"
        }
      ],
      "name": "getDirectoryPageByAddressList",
      "outputs": [
        {
          "components": [
            {
              "internalType": "bytes32",
              "name": "uid",
              "type": "bytes32"
            },
            {
              "internalType": "string",
              "name": "name",
              "type": "string"
            },
            {
              "internalType": "bytes32",
              "name": "parentUID",
              "type": "bytes32"
            },
            {
              "internalType": "bool",
              "name": "isFolder",
              "type": "bool"
            },
            {
              "internalType": "bool",
              "name": "hasData",
              "type": "bool"
            },
            {
              "internalType": "uint256",
              "name": "childCount",
              "type": "uint256"
            },
            {
              "internalType": "uint256",
              "name": "propertyCount",
              "type": "uint256"
            },
            {
              "internalType": "uint64",
              "name": "timestamp",
              "type": "uint64"
            },
            {
              "internalType": "address",
              "name": "attester",
              "type": "address"
            },
            {
              "internalType": "bytes32",
              "name": "schema",
              "type": "bytes32"
            },
            {
              "internalType": "bytes32",
              "name": "contentHash",
              "type": "bytes32"
            }
          ],
          "internalType": "struct EFSFileView.FileSystemItem[]",
          "name": "items",
          "type": "tuple[]"
        },
        {
          "internalType": "uint256",
          "name": "nextCursor",
          "type": "uint256"
        }
      ],
      "stateMutability": "view",
      "type": "function"
    },
    {
      "inputs": [
        {
          "internalType": "bytes32",
          "name": "parentAnchor",
          "type": "bytes32"
        },
        {
          "internalType": "bytes32",
          "name": "anchorSchema",
          "type": "bytes32"
        },
        {
          "internalType": "address[]",
          "name": "attesters",
          "type": "address[]"
        },
        {
          "internalType": "bytes",
          "name": "cursor",
          "type": "bytes"
        },
        {
          "internalType": "uint256",
          "name": "maxItems",
          "type": "uint256"
        }
      ],
      "name": "getDirectoryPageBySchemaAndAddressList",
      "outputs": [
        {
          "components": [
            {
              "components": [
                {
                  "internalType": "bytes32",
                  "name": "uid",
                  "type": "bytes32"
                },
                {
                  "internalType": "string",
                  "name": "name",
                  "type": "string"
                },
                {
                  "internalType": "bytes32",
                  "name": "parentUID",
                  "type": "bytes32"
                },
                {
                  "internalType": "bool",
                  "name": "isFolder",
                  "type": "bool"
                },
                {
                  "internalType": "bool",
                  "name": "hasData",
                  "type": "bool"
                },
                {
                  "internalType": "uint256",
                  "name": "childCount",
                  "type": "uint256"
                },
                {
                  "internalType": "uint256",
                  "name": "propertyCount",
                  "type": "uint256"
                },
                {
                  "internalType": "uint64",
                  "name": "timestamp",
                  "type": "uint64"
                },
                {
                  "internalType": "address",
                  "name": "attester",
                  "type": "address"
                },
                {
                  "internalType": "bytes32",
                  "name": "schema",
                  "type": "bytes32"
                },
                {
                  "internalType": "bytes32",
                  "name": "contentHash",
                  "type": "bytes32"
                }
              ],
              "internalType": "struct EFSFileView.FileSystemItem[]",
              "name": "items",
              "type": "tuple[]"
            },
            {
              "internalType": "bytes",
              "name": "nextCursor",
              "type": "bytes"
            }
          ],
          "internalType": "struct EFSFileView.DirectoryPage",
          "name": "page",
          "type": "tuple"
        }
      ],
      "stateMutability": "view",
      "type": "function"
    },
    {
      "inputs": [
        {
          "internalType": "bytes32",
          "name": "parentAnchor",
          "type": "bytes32"
        },
        {
          "internalType": "bytes32",
          "name": "anchorSchema",
          "type": "bytes32"
        },
        {
          "internalType": "address[]",
          "name": "attesters",
          "type": "address[]"
        },
        {
          "internalType": "bytes32[]",
          "name": "excludeTagDefs",
          "type": "bytes32[]"
        },
        {
          "internalType": "int256[]",
          "name": "minWeights",
          "type": "int256[]"
        },
        {
          "internalType": "bytes",
          "name": "cursor",
          "type": "bytes"
        },
        {
          "internalType": "uint256",
          "name": "maxItems",
          "type": "uint256"
        }
      ],
      "name": "getDirectoryPageFiltered",
      "outputs": [
        {
          "components": [
            {
              "components": [
                {
                  "internalType": "bytes32",
                  "name": "uid",
                  "type": "bytes32"
                },
                {
                  "internalType": "string",
                  "name": "name",
                  "type": "string"
                },
                {
                  "internalType": "bytes32",
                  "name": "parentUID",
                  "type": "bytes32"
                },
                {
                  "internalType": "bool",
                  "name": "isFolder",
                  "type": "bool"
                },
                {
                  "internalType": "bool",
                  "name": "hasData",
                  "type": "bool"
                },
                {
                  "internalType": "uint256",
                  "name": "childCount",
                  "type": "uint256"
                },
                {
                  "internalType": "uint256",
                  "name": "propertyCount",
                  "type": "uint256"
                },
                {
                  "internalType": "uint64",
                  "name": "timestamp",
                  "type": "uint64"
                },
                {
                  "internalType": "address",
                  "name": "attester",
                  "type": "address"
                },
                {
                  "internalType": "bytes32",
                  "name": "schema",
                  "type": "bytes32"
                },
                {
                  "internalType": "bytes32",
                  "name": "contentHash",
                  "type": "bytes32"
                }
              ],
              "internalType": "struct EFSFileView.FileSystemItem[]",
              "name": "items",
              "type": "tuple[]"
            },
            {
              "internalType": "bytes",
              "name": "nextCursor",
              "type": "bytes"
            }
          ],
          "internalType": "struct EFSFileView.DirectoryPage",
          "name": "page",
          "type": "tuple"
        }
      ],
      "stateMutability": "view",
      "type": "function"
    },
    {
      "inputs": [
        {
          "internalType": "bytes32",
          "name": "anchorUID",
          "type": "bytes32"
        },
        {
          "internalType": "address[]",
          "name": "attesters",
          "type": "address[]"
        },
        {
          "internalType": "bytes32",
          "name": "schema",
          "type": "bytes32"
        },
        {
          "internalType": "bytes",
          "name": "cursor",
          "type": "bytes"
        },
        {
          "internalType": "uint256",
          "name": "maxItems",
          "type": "uint256"
        }
      ],
      "name": "getFilesAtPath",
      "outputs": [
        {
          "components": [
            {
              "components": [
                {
                  "internalType": "bytes32",
                  "name": "uid",
                  "type": "bytes32"
                },
                {
                  "internalType": "string",
                  "name": "name",
                  "type": "string"
                },
                {
                  "internalType": "bytes32",
                  "name": "parentUID",
                  "type": "bytes32"
                },
                {
                  "internalType": "bool",
                  "name": "isFolder",
                  "type": "bool"
                },
                {
                  "internalType": "bool",
                  "name": "hasData",
                  "type": "bool"
                },
                {
                  "internalType": "uint256",
                  "name": "childCount",
                  "type": "uint256"
                },
                {
                  "internalType": "uint256",
                  "name": "propertyCount",
                  "type": "uint256"
                },
                {
                  "internalType": "uint64",
                  "name": "timestamp",
                  "type": "uint64"
                },
                {
                  "internalType": "address",
                  "name": "attester",
                  "type": "address"
                },
                {
                  "internalType": "bytes32",
                  "name": "schema",
                  "type": "bytes32"
                },
                {
                  "internalType": "bytes32",
                  "name": "contentHash",
                  "type": "bytes32"
                }
              ],
              "internalType": "struct EFSFileView.FileSystemItem[]",
              "name": "items",
              "type": "tuple[]"
            },
            {
              "internalType": "bytes",
              "name": "nextCursor",
              "type": "bytes"
            }
          ],
          "internalType": "struct EFSFileView.DirectoryPage",
          "name": "page",
          "type": "tuple"
        }
      ],
      "stateMutability": "view",
      "type": "function"
    },
    {
      "inputs": [],
      "name": "indexer",
      "outputs": [
        {
          "internalType": "contract IEFSIndexer",
          "name": "",
          "type": "address"
        }
      ],
      "stateMutability": "view",
      "type": "function"
    }
  ],
  "transactionHash": "0x41a7d10ff760821b80a725a3eb3f064c58323e94547b6641e07d1b66cbfbef2f",
  "args": [
    "0xc4DeaBB482C2FA74690629eEa662efb166BD658a",
    "0xD6643DB36B20895E3E46aD08cdD4ED4BC1dBB7F1"
  ],
  "numDeployments": 1,
  "solcInputHash": "647acc605328dad23f6601201b4b2bbb",
  "bytecode": "0x60e080604052346101c8576040816133fa803803809161001f82856101cd565b8339810103126101c8578051906001600160a01b038216908183036101c85760200151916001600160a01b03831683036101c85760805260405163197102e760e21b815290602090829060049082905afa9081156101bc57600091610173575b5060a05260c0526040516131f39081610207823960805181818160b60152818161013e0152818161032201528181610594015281816105e3015281816106da0152818161087101528181610b1701528181610f1a015281816110c6015281816112660152818161139e0152818161162101528181611b86015281816127b30152612a4b015260a05181818161107701528181611bd20152818161278c01528181612b4d0152612d93015260c0518181816109c001528181610a9301528181610b8401528181611032015281816114f2015281816115a8015281816116860152818161197301528181612df701526130630152f35b6020813d6020116101b4575b8161018c602093836101cd565b810103126101b05751906001600160a01b03821682036101ad57503861007f565b80fd5b5080fd5b3d915061017f565b6040513d6000823e3d90fd5b600080fd5b601f909101601f19168101906001600160401b038211908210176101f057604052565b634e487b7160e01b600052604160045260246000fdfe6080604052600436101561001257600080fd5b60003560e01c8063319f4718146118795780635e50b6f7146111975780637116da98146110a65780638150864d1461106157806384cb71d01461101c5780638bc3042f14610ee5578063b08da0d214610ec9578063ba423833146103fe578063cb0b159b146103a4578063d1463b6b146102ce578063dba3517b146100ea5763e06118b7146100a057600080fd5b346100e55760003660031901126100e5576040517f00000000000000000000000000000000000000000000000000000000000000006001600160a01b03168152602090f35b600080fd5b346100e55760803660031901126100e5576004356024356001600160401b0381116100e55761012061017991369060040161203e565b6040516378e747c160e01b81526004810184905260c06024820152917f00000000000000000000000000000000000000000000000000000000000000006001600160a01b031691600091849182919060c48301906126b5565b60443560448301526064356064830152600160848301528360a48301520381845afa918215610263576000906000936102a6575b50604051630c719acf60e41b815290602082600481865afa9182156102635760009261026f575b506020600493604051948580926301a5d16f60e21b82525afa9283156102635760009361022b575b50906102219461020c9392612774565b9060405192839260408452604084019061214d565b9060208301520390f35b9250906020833d60201161025b575b8161024760209383611e4e565b810103126100e557915191906102216101fc565b3d915061023a565b6040513d6000823e3d90fd5b9291506020833d60201161029e575b8161028b60209383611e4e565b810103126100e5579151909160206101d4565b3d915061027e565b90506102c69192503d806000833e6102be8183611e4e565b81019061270e565b9190846101ad565b346100e55760a03660031901126100e55760043560405163174451a960e11b815281600482015260243560248201526044356044820152600160648201526000608482015260008160a48160018060a01b037f0000000000000000000000000000000000000000000000000000000000000000165afa9182156102635761037d9261036992600091610381575b506084359160643591612774565b60405191829160208352602083019061214d565b0390f35b61039e91503d806000833e6103968183611e4e565b810190612690565b8461035b565b346100e55760203660031901126100e5576004356001600160401b0381116100e5576103e96103da61037d923690600401611e8a565b602080825183010191016125cb565b50604051918291602083526020830190611ef4565b346100e55760e03660031901126100e5576044356001600160401b0381116100e55761042e90369060040161203e565b606435906001600160401b0382116100e557366023830112156100e55781600401359161045a83612027565b926104686040519485611e4e565b8084526024602085019160051b830101913683116100e557602401905b828210610eb9575050506084356001600160401b0381116100e557366023820112156100e5578060040135906104ba82612027565b916104c86040519384611e4e565b8083526024602084019160051b830101913683116100e557602401905b828210610ea95750505060a4356001600160401b0381116100e55761050e903690600401611e8a565b60c4359061051a61222e565b9361052781511515612247565b610535601482511115612293565b8551845103610e52576008865111610e15576105528315156122d4565b6000809460009380519060608214610de0575b50506040519761057489611e18565b8852602080890191909152604051630c719acf60e41b81529490856004817f00000000000000000000000000000000000000000000000000000000000000006001600160a01b03165afa94851561026357600095610dac575b50604051630fe23d7960e11b81526020816004817f00000000000000000000000000000000000000000000000000000000000000006001600160a01b03165afa90811561026357600091610d7a575b5061062682612317565b95604051996101a08b01958b87106001600160401b03881117610d645760ff966040526004358c5260243560208d015260408c015260608b015260808a015260a089015260c088015216928360e0870152610100860152610120850152610140840152600061016084015260006101808401521561099a575b600160ff60e084015116146107f7575b610140820151610160830151815260808301516040516301a5d16f60e21b81529093916020826004817f00000000000000000000000000000000000000000000000000000000000000006001600160a01b03165afa918215610263576000926107c1575b509061037d946107269260043590612774565b825260ff60e08201511660018114806107b3575b1561076557505060405161074f602082611e4e565b6000815260208201525b60405191829182611f19565b6107a99061079b6101206101008501519401516040519485936020850160409194939260ff606083019616825260208201520152565b03601f198101835282611e4e565b6020820152610759565b50610180820151151561073a565b91506020823d6020116107ef575b816107dc60209383611e4e565b810103126100e55790519061037d610713565b3d91506107cf565b6000905b61016083015160c0840151118061098f575b156109455761081b82612616565b61082f60c085015161016086015190612626565b90808211610987575b506000845160208601519061086d6040880151946101208901516040519687958695637c08137b60e11b875260048701612738565b03817f00000000000000000000000000000000000000000000000000000000000000006001600160a01b03165afa801561026357600091829161096c575b506000935b8251851015610965576108c290612383565b936108cd818461239f565b516108ed6040880151606089015160808a01519060a08b01519285612d6a565b61095c576109156101408801516101608901519061090a82612383565b6101608b015261239f565b5261016086015160c087015114610931576001905b01936108b0565b505b806101208601521561094c57516107fb575b90506106af565b50905060016101808301526106af565b5060019061092a565b9350610933565b9050610981913d8091833e6102be8183611e4e565b856108ab565b905084610838565b50610800821061080d565b604051633618e1d560e01b815260048035908201526024803590820152906020826044817f00000000000000000000000000000000000000000000000000000000000000006001600160a01b03165afa91821561026357600092610d30575b506000915b61016084015160c08501511180610d22575b80610d17575b15610d0f57610a2a61010085015182612626565b8361080003906108008211610cf9576040811015610cf057905b808211610ce8575b50845160208601516101008701516040516327ac837b60e11b8152600481019390935260248301919091526044820152606481018290526000816084816001600160a01b037f0000000000000000000000000000000000000000000000000000000000000000165afa90811561026357600091610ccf575b506000945b8151861015610cc857610aef90610ae4610100890151612383565b610100890152612383565b94610afa818361239f565b51604051634294857f60e01b8152600481018290526020816024817f00000000000000000000000000000000000000000000000000000000000000006001600160a01b03165afa90811561026357600091610c8f575b50610c4a57610b806020808a015160408b0151906040519384928392631c6dd3e560e21b845287600485016126f2565b03817f00000000000000000000000000000000000000000000000000000000000000006001600160a01b03165afa90811561026357600091610c53575b5015610c4a57610be2604089015160608a015160808b01519060a08c01519285612d6a565b610c4a57610c0a6101408901516101608a015190610bff82612383565b6101608c015261239f565b5261016087015160c088015114610c26576001905b0194610ac9565b505b5110156109fe579091505b6101008301511061069f57600160e083015261069f565b50600190610c1f565b906020823d8211610c87575b81610c6c60209383611e4e565b81010312610c845750610c7e90612392565b89610bbd565b80fd5b3d9150610c5f565b906020823d8211610cc0575b81610ca860209383611e4e565b81010312610c845750610cba90612392565b89610b50565b3d9150610c9b565b9450610c28565b610ce2913d8091833e6103968183611e4e565b86610ac4565b905085610a4c565b50604090610a44565b634e487b7160e01b600052601160045260246000fd5b909150610c33565b506108008310610a16565b508061010085015110610a10565b90916020823d602011610d5c575b81610d4b60209383611e4e565b81010312610c8457505190836109f9565b3d9150610d3e565b634e487b7160e01b600052604160045260246000fd5b90506020813d602011610da4575b81610d9560209383611e4e565b810103126100e557518961061c565b3d9150610d88565b9094506020813d602011610dd8575b81610dc860209383611e4e565b810103126100e5575193886105cd565b3d9150610dbb565b602080610df19383010191016125fb565b916001811115610e02575b50610565565b90975090945060ff169150888080610dfc565b60405162461bcd60e51b8152602060048201526015602482015274546f6f206d616e79206578636c756465207461677360581b6044820152606490fd5b60405162461bcd60e51b815260206004820152602960248201527f6578636c756465546167446566732f6d696e57656967687473206c656e677468604482015268040dad2e6dac2e8c6d60bb1b6064820152608490fd5b81358152602091820191016104e5565b8135815260209182019101610485565b346100e55760203660031901126100e557602060405160008152f35b346100e55760803660031901126100e5576024356001600160a01b038116908190036100e5576040516319688b1f60e11b81527f00000000000000000000000000000000000000000000000000000000000000006001600160a01b031691602082600481865afa91821561026357600092610fe7575b5060e46000926040519485938492631cd3ac9b60e21b8452600435600485015260248401526044830152604435606483015260643560848301528460a48301528460c48301525afa9081156102635761037d91610fc091600091610fcc575b50612a49565b604051918291826120ac565b610fe191503d806000833e6103968183611e4e565b83610fba565b91506020823d602011611014575b8161100260209383611e4e565b810103126100e55790519060e4610f5b565b3d9150610ff5565b346100e55760003660031901126100e5576040517f00000000000000000000000000000000000000000000000000000000000000006001600160a01b03168152602090f35b346100e55760003660031901126100e5576040517f00000000000000000000000000000000000000000000000000000000000000006001600160a01b03168152602090f35b346100e55760603660031901126100e5576040516319688b1f60e11b81527f00000000000000000000000000000000000000000000000000000000000000006001600160a01b031690602081600481855afa801561026357600090611164575b6000915060c46040518094819363f4ed57c360e01b835260043560048401526024830152602435604483015260443560648301528460848301528460a48301525afa9081156102635761037d91610fc091600091610fcc5750612a49565b506020813d60201161118f575b8161117e60209383611e4e565b810103126100e55760009051611106565b3d9150611171565b346100e55760a03660031901126100e5576044356001600160401b0381116100e5576111c790369060040161203e565b6064356001600160401b0381116100e5576111e6903690600401611e8a565b6111ee61222e565b906111fb83511515612247565b611209601484511115612293565b61121660843515156122d4565b60009081809180519060608214611844575b5050611235608435612317565b94600060ff8316156114c6575b600090600160ff851614928361139c575b508752604051630c719acf60e41b8152967f00000000000000000000000000000000000000000000000000000000000000006001600160a01b0316602089600481845afa98891561026357600099611365575b50906020600492604051938480926301a5d16f60e21b82525afa9182156102635760009261132f575b509061037d986112e29260043590612774565b865281611327575b50156113015750505060405161074f602082611e4e565b6040805160ff909216602083015281019290925260608201526107a9816080810161079b565b9050866112ea565b91506020823d60201161135d575b8161134a60209383611e4e565b810103126100e55790519061037d6112cf565b3d915061133d565b919098506020823d602011611394575b8161138260209383611e4e565b810103126100e55790519760206112a6565b3d9150611375565b7f00000000000000000000000000000000000000000000000000000000000000006001600160a01b03165b60843583106113d7575b50611253565b909493929160006114139998976113f083608435612626565b604051637c08137b60e11b81529b8c928392908b60243560048035908701612738565b0381855afa958615610263578a9260009a8b986114a5575b5060005b8b5181101561149457611442818d61239f565b5161145661144f86612383565b958761239f565b5260843584146114685760010161142f565b5091939495969798999092505b871561148557516113c7576113d1565b505050905060019088806113d1565b509193949596979899909250611475565b9097506114bc919a3d8091833e6102be8183611e4e565b999099968c61142b565b604051633618e1d560e01b815260048035908201526024803590820152949594939291906020856044817f00000000000000000000000000000000000000000000000000000000000000006001600160a01b03165afa9485156118375781956117ff575b508096945b6084358210806117f6575b806117eb575b156117de5761154f8682612626565b61155889612616565b9060408110156117d557905b8082116117cd575b506040516327ac837b60e11b81526004803590820152602480359082015260448101889052606481018290526000816084816001600160a01b037f0000000000000000000000000000000000000000000000000000000000000000165afa908115610263576000916117b4575b506000975b81518910156117ac576115f36115f991612383565b9a612383565b97611604818361239f565b51604051634294857f60e01b8152600481018290526020816024817f00000000000000000000000000000000000000000000000000000000000000006001600160a01b03165afa90811561026357600091611773575b5061176a57604051631c6dd3e560e21b815295602087806116828b60243587600485016126f2565b03817f00000000000000000000000000000000000000000000000000000000000000006001600160a01b03165afa8015610263578e97600091611723575b5015611718576116d9906116d381612383565b9761239f565b5260843585146116ef576001905b0197996115de565b505b51106116ff5796949661152f565b9091929394509594955b85106112425760019250611242565b9550506001906116e7565b91929394959697506020823d8211611762575b8161174360209383611e4e565b81010312610c8457509061175c8e979695949392612392565b8f6116c0565b3d9150611736565b506001906116e7565b906020823d82116117a4575b8161178c60209383611e4e565b81010312610c84575061179e90612392565b8e61165a565b3d915061177f565b9997506116f1565b6117c7913d8091833e6103968183611e4e565b8b6115d9565b90508a61156c565b50604090611564565b9091929394959650611709565b506108008810611540565b5080861061153a565b9094506020813d60201161182f575b8161181b60209383611e4e565b8101031261182b5751938861152a565b8480fd5b3d915061180e565b50604051903d90823e3d90fd5b6020806118559383010191016125fb565b916001811115611866575b50611228565b90945090925060ff169050858080611860565b346100e55760a03660031901126100e5576024356004356001600160401b0382116100e557366023830112156100e55781600401356001600160401b0381116100e5576024830192602436918360051b0101116100e557604435916064356001600160401b0381116100e5576118f3903690600401611e8a565b906084359161190061222e565b9261190c851515612247565b6119196014861115612293565b6119248115156122d4565b815160009260208214611ddd575b505094959261194086612317565b9261194a87612027565b956119586040519788611e4e565b878752601f1961196789612027565b013660208901376000957f00000000000000000000000000000000000000000000000000000000000000006001600160a01b0316935b82861080611dd4575b15611b61576119c76119c16119bc888686612349565b61236f565b96612383565b604051632a9bfcbb60e21b8152600481018690526001600160a01b0388166024820152604481018d90529b909a9060208d6064818a5afa9c8d156102635760009d611b2e575b508c15611b2257600092835b60018101808211610cf9578e1115611b14578e611a3a6119bc838a8a612349565b604051634d9830ed60e11b81526001600160a01b0390911660048201526024810191909152604481018990526020816064818d5afa90811561026357600091611adb575b50611a9157611a8c90612383565b611a19565b50939c9192509a9660015b611ad457611aaa8a8c61239f565b6001600160a01b039091169052611aca611ac38a612383565b998961239f565b525b98999061199d565b5050611acc565b906020823d8211611b0c575b81611af460209383611e4e565b81010312610c845750611b0690612392565b38611a7e565b3d9150611ae7565b50939c91929b97909b611a9c565b9a965090919a50611acc565b909c6020823d8211611b59575b81611b4860209383611e4e565b81010312610c845750519b8d611a0d565b3d9150611b3b565b878752878952604051630c719acf60e41b8152909796929450919290506020826004817f00000000000000000000000000000000000000000000000000000000000000006001600160a01b03165afa91821561026357600092611da0575b50611bcb8692966123b3565b60209690937f00000000000000000000000000000000000000000000000000000000000000006001600160a01b0316919060005b858110611c5757868b5261037d8b8b8b8b8110611c38575060405190611c258183611e4e565b6000825282015260405191829182611f19565b906040519181830152808252611c4f604083611e4e565b820152610759565b611c61818361239f565b5190604051916328c44a9960e21b83526004830152600082602481885afa8015610263578b8e91600194600091611d7f575b50604051611ca18382611e4e565b60008152928282019188835103611d4e575b611cbd868961239f565b51946001600160401b0360408b8651149301511692611ce2888a8060a01b039261239f565b511693519460405196611cf488611dfc565b87528601528a6040860152801560608601526080850152600060a0850152600060c085015260e08401526101008301526101208201526000610140820152611d3c828a61239f565b52611d47818961239f565b5001611bff565b610120810151805180611d63575b5050611cb3565b611d7692965085809183010191016125cb565b50933880611d5c565b611d9a913d8091833e611d928183611e4e565b8101906124b2565b38611c93565b90916020823d602011611dcc575b81611dbb60209383611e4e565b81010312610c845750519088611bbf565b3d9150611dae565b508988106119a6565b9192602080840193919282019190910312610c84575051908780611932565b61016081019081106001600160401b03821117610d6457604052565b604081019081106001600160401b03821117610d6457604052565b60a081019081106001600160401b03821117610d6457604052565b90601f801991011681019081106001600160401b03821117610d6457604052565b6001600160401b038111610d6457601f01601f191660200190565b81601f820112156100e557803590611ea182611e6f565b92611eaf6040519485611e4e565b828452602083830101116100e557816000926020809301838601378301015290565b60005b838110611ee45750506000910152565b8181015183820152602001611ed4565b90602091611f0d81518092818552858086019101611ed1565b601f01601f1916010190565b91906020835260608301908051916040602086015282518091526080850190602060808260051b8801019401916000905b828210611f745750505050926020611f7193940151906040601f1982850301910152611ef4565b90565b90919294602080600192607f198b82030185528851908151815261014080611fab8585015161016087860152610160850190611ef4565b936040810151604085015260608101511515606085015260808101511515608085015260a081015160a085015260c081015160c08501526001600160401b0360e08201511660e0850152878060a01b03610100820151166101008501526101208101516101208501520151910152970192019201909291611f4a565b6001600160401b038111610d645760051b60200190565b9080601f830112156100e55781359061205682612027565b926120646040519485611e4e565b82845260208085019360051b8201019182116100e557602001915b81831061208c5750505090565b82356001600160a01b03811681036100e55781526020928301920161207f565b602081016020825282518091526040820191602060408360051b8301019401926000915b8383106120df57505050505090565b9091929394602080600192603f1985820301865288519081518152828201518382015260806001600160401b0381612126604086015160a0604087015260a0860190611ef4565b94888060a01b036060820151166060860152015116910152970193019301919392906120d0565b9080602083519182815201916020808360051b8301019401926000915b83831061217957505050505090565b9091929394602080600192601f1985820301865288519081518152610140806121b18585015161016087860152610160850190611ef4565b936040810151604085015260608101511515606085015260808101511515608085015260a081015160a085015260c081015160c08501526001600160401b0360e08201511660e0850152878060a01b036101008201511661010085015261012081015161012085015201519101529701930193019193929061216a565b6040519061223b82611e18565b60606020838281520152565b1561224e57565b60405162461bcd60e51b815260206004820152601e60248201527f417474657374657273206c6973742063616e6e6f7420626520656d70747900006044820152606490fd5b1561229a57565b60405162461bcd60e51b8152602060048201526012602482015271546f6f206d616e792061747465737465727360701b6044820152606490fd5b156122db57565b60405162461bcd60e51b815260206004820152601460248201527306d61784974656d73206d757374206265203e20360641b6044820152606490fd5b9061232182612027565b61232e6040519182611e4e565b828152809261233f601f1991612027565b0190602036910137565b91908110156123595760051b0190565b634e487b7160e01b600052603260045260246000fd5b356001600160a01b03811681036100e55790565b6000198114610cf95760010190565b519081151582036100e557565b80518210156123595760209160051b010190565b906123bd82612027565b6123ca6040519182611e4e565b82815280926123db601f1991612027565b019060005b8281106123ec57505050565b6020906040516123fb81611dfc565b60008152606083820152600060408201526000606082015260006080820152600060a0820152600060c0820152600060e0820152600061010082015260006101208201526000610140820152828285010152016123e0565b51906001600160401b03821682036100e557565b51906001600160a01b03821682036100e557565b9092919261248881611e6f565b916124966040519384611e4e565b8294828452828201116100e55760206124b0930190611ed1565b565b6020818303126100e5578051906001600160401b0382116100e5570190610140828203126100e5576040519161014083018381106001600160401b03821117610d6457604052805183526020810151602084015261251260408201612453565b604084015261252360608201612453565b606084015261253460808201612453565b608084015260a081015160a084015261254f60c08201612467565b60c084015261256060e08201612467565b60e08401526125726101008201612392565b610100840152610120810151906001600160401b0382116100e557019080601f830112156100e55781516125a89260200161247b565b61012082015290565b9080601f830112156100e5578151611f719260200161247b565b91906040838203126100e55782516001600160401b0381116100e5576020916125f59185016125b1565b92015190565b908160609103126100e5578051916040602083015192015190565b61080003906108008211610cf957565b91908203918211610cf957565b9080601f830112156100e557815161264a81612027565b926126586040519485611e4e565b81845260208085019260051b8201019283116100e557602001905b8282106126805750505090565b8151815260209182019101612673565b906020828203126100e55781516001600160401b0381116100e557611f719201612633565b906020808351928381520192019060005b8181106126d35750505090565b82516001600160a01b03168452602093840193909201916001016126c6565b611f7193926060928252602082015281604082015201906126b5565b91906040838203126100e55782516001600160401b0381116100e5576020916125f5918501612633565b9160c09361275e916000969897938552602085015260e0604085015260e08401906126b5565b9560608301526080820152600160a08201520152565b93929161278185516123b3565b946001600160a01b037f00000000000000000000000000000000000000000000000000000000000000008116946020937f00000000000000000000000000000000000000000000000000000000000000009092169260005b8151811015612a3f576127ec818361239f565b516040516328c44a9960e21b81526004810182905291906000836024818d5afa92831561026357600093612a24575b506040516128298982611e4e565b60008152926000906101208101518a815180612a06575b5050506040519063f7a5242760e01b82528360048301528a826024818d5afa8015610263578a926000916129d4575b508b8a604460405180968193637d6fb46960e11b83528a600484015260248301525afa908115610263578b936000926129a0575b508c8a604460405180978193637d6fb46960e11b83528b600484015260248301525afa918215610263578e8e9560009461295c575b506001996001600160401b036040870151169560e08c8060a01b039101511696604051996129058b611dfc565b8a528901526040880152851560608801521515608087015260a086015260c085015260e0840152610100830152610120820152600061014082015261294a828d61239f565b52612955818c61239f565b50016127d9565b8681949698999a9b9792509492943d8311612999575b61297c8183611e4e565b81010312610c845750918c93918e600199989796945193996128d8565b503d612972565b91909293508c82813d83116129cd575b6129ba8183611e4e565b81010312610c845750518a9291386128a3565b503d6129b0565b9192508b82813d83116129ff575b6129ec8183611e4e565b81010312610c845750908991513861286f565b503d6129e2565b828293949850612a1a9550010191016125cb565b9093388a81612840565b612a3891933d8091833e611d928183611e4e565b913861281b565b5050505050505050565b7f00000000000000000000000000000000000000000000000000000000000000006001600160a01b03169190600090815b8151811015612b1557612a8d818361239f565b5160405190634294857f60e01b82526004820152602081602481895afa90811561026357600091612adc575b5015612ac8575b600101612a7a565b91612ad4600191612383565b929050612ac0565b906020823d8211612b0d575b81612af560209383611e4e565b81010312610c845750612b0790612392565b38612ab9565b3d9150612ae8565b509092612b2184612027565b93612b2f6040519586611e4e565b808552612b3e601f1991612027565b0160005b818110612d115750507f00000000000000000000000000000000000000000000000000000000000000006001600160a01b031693600091825b8451841015612d0857612b8e848661239f565b5160405190634294857f60e01b82526004820152602081602481865afa90811561026357600091612ccf575b50612cc657612bc9848661239f565b5193604051946328c44a9960e21b865260048601526000856024818b5afa94851561026357600095612cab575b506101208501519182518301906040848303126100e557602084015160408501516001600160401b0381116100e5576001956020612c3c9281612ca297019201016125b1565b97612c47858b61239f565b51986001600160401b036040888060a01b0360e08501511693015116926040519a612c718c611e33565b8b5260208b015260408a015260608901526080880152612c9081612383565b96612c9b828861239f565b528561239f565b505b0192612b7b565b612cbf91953d8091833e611d928183611e4e565b9338612bf6565b92600190612ca4565b906020823d8211612d00575b81612ce860209383611e4e565b81010312610c845750612cfa90612392565b38612bba565b3d9150612cdb565b50909450505050565b60209060409693959651612d2481611e33565b600081526000838201526060604082015260006060820152600060808201528282860101520194939194612b42565b91908260409103126100e55760206125f583612392565b9190929493815151156131b3576040516328c44a9960e21b8152600481018490526000816024817f00000000000000000000000000000000000000000000000000000000000000006001600160a01b03165afa90811561026357600091613198575b50610120600091015180518061317c575b505015613057575092612df08351612317565b60009390927f00000000000000000000000000000000000000000000000000000000000000006001600160a01b031692909190855b8251811015612f2957612e7d60208a6001600160a01b03612e46858861239f565b51166040519384928392632a9bfcbb60e21b84528a600485016040919493926060820195825260018060a01b031660208201520152565b0381895afa90811561026357600091612ef8575b508015612eef576000805b898110612ecb575b50906001929115612eb8575b505b01612e25565b612ec4611ac38a612383565b5238612eb0565b82612ed6828b61239f565b5114612ee457600101612e9c565b506001905080612ea4565b50600190612eb2565b906020823d8211612f21575b81612f1160209383611e4e565b81010312610c8457505138612e91565b3d9150612f04565b50969492909593915060005b838110612f485750505050505050600090565b6000935b85515185101561304d5760005b8851811015613042576001600160a01b03612f74828b61239f565b51166040612f82858861239f565b51612f8e898b5161239f565b5182516370a2c62960e11b81526001600160a01b0394909416600485015260248401919091526044830152606482018a905281608481885afa8015610263576000918291613012575b5081612ff9575b50612feb57600101612f59565b505050505050505050600190565b90506130098760208a015161239f565b51131538612fde565b9050613035915060403d811161303b575b61302d8183611e4e565b810190612d53565b38612fd7565b503d613023565b509360010193612f4c565b9350600101612f35565b939450919291906000907f00000000000000000000000000000000000000000000000000000000000000006001600160a01b03165b8351518310156131715760005b8651811015613166576001600160a01b036130b4828961239f565b51166040846130c487895161239f565b5182516370a2c62960e11b81526001600160a01b03949094166004850152602484019190915260448301526064820188905281608481865afa8015610263576000918291613146575b508161312d575b5061312157600101613099565b50505050505050600190565b905061313d85602088015161239f565b51131538613114565b9050613160915060403d811161303b5761302d8183611e4e565b3861310d565b50916001019161308c565b505050505050600090565b61318f92506020809183010191016125cb565b90503880612ddd565b6131ad91503d806000833e611d928183611e4e565b38612dcc565b506000945050505056fea2646970667358221220ba1347be740cc5d73e982ba6f807794cd980bf3c684189e32172a9799cc3acf564736f6c634300081a0033",
  "devdoc": {
    "kind": "dev",
    "methods": {
      "getCanonicalData(bytes32)": {
        "details": "AGENT-NOTE: hash/size now live as PROPERTYs (ADR-0049); reverse-lookup is future      on-chain property-index work. DATA is empty/pure-identity, so there is no longer an      intrinsic content-hash index; `dataByContentKey` is no longer written. Canonical/dedup      resolution moves to the REDIRECT primitive (ADR-0050) + the property index. The method      is retained as a no-op so the view ABI stays stable for callers during the transition."
      },
      "getDataMirrors(bytes32,address,uint256,uint256)": {
        "details": "The default mirror read: returns only `attester`'s active mirrors on `dataUID`, matching the      router's lens-scoped mirror selection — so a foreign attester's mirror (arbitrary-scheme bytes      since ADR-0056) can never surface to a viewer who didn't opt into that attester. Reads ARE      lens-scoped (overview.md load-bearing invariants), so the lens `attester` is a REQUIRED      parameter. For the rare cross-attester discovery case (debug/indexing) use      `getDataMirrorsAllAttesters`, which is explicitly NOT lens-scoped.",
        "params": {
          "attester": "The lens attester to scope to (required)",
          "dataUID": "The DATA attestation UID",
          "length": "Page size",
          "start": "Pagination offset"
        }
      },
      "getDataMirrorsAllAttesters(bytes32,uint256,uint256)": {
        "details": "Returns every attester's mirrors, including ones from attesters the viewer never trusted.      Mirror URIs are attester-controlled arbitrary bytes (any scheme, ADR-0056). A consumer of this      MUST NOT render a foreign URI as a live link or auto-fetch it — each `MirrorItem.attester` is      returned so it can be labelled/filtered. Production reads should use the lens-scoped      `getDataMirrors(dataUID, attester, …)`; this exists only for cross-attester inspection.",
        "params": {
          "dataUID": "The DATA attestation UID",
          "length": "Page size",
          "start": "Pagination offset"
        }
      },
      "getDirectoryPageBySchemaAndAddressList(bytes32,bytes32,address[],bytes,uint256)": {
        "params": {
          "anchorSchema": "Schema to filter on. Generic folders with an active tag of this                      schema are included in phase 0; direct children of this schema                      are included in phase 1.",
          "attesters": "Lens addresses (ADR-0031). An entry qualifies if ANY listed                      attester has contributed it.",
          "cursor": "Opaque token from a prior call. Empty bytes = start from the                      beginning. Never introspected by callers; encoding is an                      implementation detail (see ADR-0036).",
          "maxItems": "Target result size. Must be > 0.",
          "parentAnchor": "Directory Anchor UID."
        },
        "returns": {
          "page": "        `items` + `nextCursor`. `nextCursor.length == 0` iff both phases                      are fully walked; otherwise pass `nextCursor` back verbatim."
        }
      },
      "getDirectoryPageFiltered(bytes32,bytes32,address[],bytes32[],int256[],bytes,uint256)": {
        "params": {
          "anchorSchema": "Schema to filter on (same role as the sibling function).",
          "attesters": "Lens addresses (ADR-0031). Must be non-empty.",
          "cursor": "Opaque token from a prior call (ADR-0036); empty = fresh start.",
          "excludeTagDefs": "TAG predicates whose presence (with `weight >= minWeights[k]`) excludes.                      Parallel to `minWeights`. Empty ⇒ no exclusion (unfiltered page).",
          "maxItems": "Target POST-filter result size. Must be > 0.",
          "minWeights": "Inclusive weight thresholds, one per `excludeTagDefs[k]`. Caller-chosen                      policy; `minWeights.length` must equal `excludeTagDefs.length`.",
          "parentAnchor": "Directory Anchor UID."
        },
        "returns": {
          "page": "        `items` (excluded items omitted) + `nextCursor`. `nextCursor.length == 0`                      iff both phases are fully walked."
        }
      },
      "getFilesAtPath(bytes32,address[],bytes32,bytes,uint256)": {
        "details": "Note: with PIN cardinality 1 per attester, the per-attester result is at most      one item, so concurrent-mutation caveats from the prior TAG-list pagination no      longer apply.",
        "params": {
          "anchorUID": "The path anchor (e.g. /memes/).",
          "attesters": "Lens addresses to query, in precedence order.",
          "cursor": "Opaque token from a prior call. Empty = start from the beginning.",
          "maxItems": "Target result size. Must be > 0.",
          "schema": "Target schema to filter. **Must be DATA_SCHEMA_UID or                   ANCHOR_SCHEMA_UID** — those are the only two payload shapes                   the per-item decode below understands. Calling with any other                   schema (e.g. PROPERTY_SCHEMA_UID) will produce decode reverts                   or garbage `name`/`contentHash` fields. A separate, schema-aware                   listing view is the right home for non-file PIN-shaped reads."
        },
        "returns": {
          "page": "     `items` + `nextCursor`. `nextCursor.length == 0` iff every attester                   has been walked."
        }
      }
    },
    "stateVariables": {
      "MAX_ATTESTERS_PER_QUERY": {
        "details": "Maximum attesters per multi-lens view call.      Bounds per-call gas on the attester-scoped walkers; does not bound returned items.      Callers wanting more than this many lenses need a different aggregation model."
      },
      "MAX_EXCLUDE_TAGS_PER_QUERY": {
        "details": "Maximum exclude-tag predicates per `getDirectoryPageFiltered` call (ADR-0054).      The per-item exclusion check loops over `excludeTagDefs`, so the per-item file branch      is O(dataUIDs × lenses × excludeTags); this cap keeps that product bounded alongside      `MAX_ATTESTERS_PER_QUERY`. 8 comfortably covers the explorer's `system` + `nsfw` policy      (and headroom for future label policies) without letting a caller blow the per-item gas      budget. Symmetric in spirit to `MAX_ATTESTERS_PER_QUERY`."
      },
      "_FILE_SCAN_BUDGET_PER_CALL": {
        "details": "Hard cap on phase-1 entries inspected per call in `getDirectoryPageFiltered`.      Symmetric to `_FOLDER_SCAN_BUDGET_PER_CALL` (phase 0). The plain      `getDirectoryPageBySchemaAndAddressList` does not need a phase-1 budget because every      phase-1 candidate the indexer returns becomes a result item (no per-item drop), so its      inner loop is naturally bounded by `maxItems`. The filtered variant can DROP phase-1      items (the exclusion predicate), so a page that is 100%-excluded under the lens would      otherwise loop the entire phase-1 source in one eth_call. This budget bounds per-call      work; the opaque cursor (ADR-0036) continues progress across calls — same pattern as      the phase-0 budget and ADR-0020's mirror-scan cap.      Read through `_fileScanBudgetPerCall()` (not the bare constant) so a test-only      subclass can override it to a small value and exercise the budget guard without      seeding thousands of items. Production default is unchanged."
      },
      "_FOLDER_SCAN_BUDGET_PER_CALL": {
        "details": "Hard cap on entries inspected in phase 0 per call. The append-only      `_childrenWithEdge[parent][schema]` list can grow unboundedly for a hot      directory, and a page where most entries get filtered out (wrong attester,      revoked) would otherwise loop `_childrenWithEdge.length` times in a      single eth_call — causing RPC timeouts or provider out-of-gas. The budget      bounds per-call work; the opaque cursor continues progress across calls      (same pattern as ADR-0020's `MAX_PAGES = 10` mirror-scan cap in      `EFSRouter._getBestMirrorURI`).      Read through `_folderScanBudgetPerCall()` (not the bare constant) so a      test-only subclass can override it to a small value and exercise the budget      guard without seeding thousands of items. Production default is unchanged."
      },
      "_FOLDER_SCAN_CHUNK": {
        "details": "Internal batch size for `_childrenWithEdge` chunk fetches during the folder      phase of `getDirectoryPageBySchemaAndAddressList`. Chosen to keep memory use      bounded while still amortizing external-call overhead."
      }
    },
    "version": 1
  },
  "userdoc": {
    "kind": "user",
    "methods": {
      "getCanonicalData(bytes32)": {
        "notice": "Deprecated content-hash → canonical DATA reverse lookup. Always returns bytes32(0)."
      },
      "getDataMirrors(bytes32,address,uint256,uint256)": {
        "notice": "Get a lens's mirrors (retrieval methods) for a DATA attestation. **Lens-scoped** (ADR-0013)."
      },
      "getDataMirrorsAllAttesters(bytes32,uint256,uint256)": {
        "notice": "Get mirrors for a DATA across **ALL** attesters — NOT lens-scoped. Debug / discovery only."
      },
      "getDirectoryPageBySchemaAndAddressList(bytes32,bytes32,address[],bytes,uint256)": {
        "notice": "Schema-aware directory listing with folder inclusion. Opaque-cursor paginated         (ADR-0036). Walks two underlying sources in order, dedup-free because the         sources are disjoint (tagged folders vs. direct children of `anchorSchema`):           Phase 0: qualifying generic folders — subfolders under `parentAnchor` that                    at least one `attesters[]` entry has an active TAG on with                    `definition = anchorSchema` (ADR-0006 revised, ADR-0038, ADR-0041:                    single-source tag-only folder visibility under the cardinality-N                    TAG schema).           Phase 1: direct child anchors of `anchorSchema` under `parentAnchor`, scoped                    to `attesters[]` via `_childrenBySchema` + `containsAttestations`.         Each call advances internal walkers by whatever it takes to produce up to         `maxItems` items or exhaust both sources. Filtered-out entries (revoked,         lens-out-of-scope) still advance the walker — `maxItems` bounds result         size, not work."
      },
      "getDirectoryPageFiltered(bytes32,bytes32,address[],bytes32[],int256[],bytes,uint256)": {
        "notice": "Tag-exclusion-filtered directory listing (ADR-0054). Identical walk, sources,         budgets, and opaque cursor format (ADR-0036) to         `getDirectoryPageBySchemaAndAddressList`, PLUS a per-item exclusion predicate over         a set of `(excludeTagDefs[k], minWeights[k])` pairs (parallel arrays, ADR-0054):           **Skip an item if, for ANY pair k, ANY attester in `attesters` has an active TAG           `excludeTagDefs[k]` on it with `weight >= minWeights[k]`.**         The exclusion is a UNION across the exclude-tag pairs AND across the viewed lenses —         each pair applies the exact single-tag semantic the v1 form did (the multi-tag form         supersedes the single-tag v1 so the explorer can hide e.g. `system` + `nsfw` in one         call). The comparison is inclusive (`>=`) and lives in the view layer; each         `minWeights[k]` is a caller argument (ADR-0042's `weight >= 0` is just the         conventional `minWeight = 0` a caller passes, not a baked-in rule). The kernel stays         weight-neutral. Empty arrays ⇒ no exclusion (degenerates to the unfiltered page).         **Tag-target asymmetry (load-bearing, ADR-0054).** A descriptive-label TAG targets         different UIDs for folders vs files, and the predicate is a UNION over the viewed         lenses (mirroring the client's `FileBrowser.resolveTagSet`): an item is excluded iff         ANY viewed lens has an active `excludeTagDef` TAG (weight >= minWeight) on ANY DATA         UID resolved at the item across the viewed lenses (files), or on the item's anchor         UID (folders):           - **folder** item (anchorType == bytes32(0)): the TAG targets the item's ANCHOR             UID, bucket `ANCHOR_SCHEMA_UID`. Tested against every lens.           - **file** item: the TAG targets a DATA UID, reached via the placement PIN             `getActivePinTarget(itemAnchor, lens, dataSchemaUID)`, bucket `dataSchemaUID`.             The DATA UIDs of ALL viewed lenses are collected (deduplicated) ONCE per item,             then each is tested against EVERY lens's tags for EVERY exclude pair — so a DATA             one lens pinned and ANOTHER viewed lens tagged is still excluded. Testing an             exclude tag against a file's anchor UID is the wrong target and excludes             nothing — the known footgun.         `maxItems` counts POST-filter result slots: an excluded item advances the walker         but consumes no slot (same as a revoked / out-of-lens skip). A phase-1 scan budget         (`_FILE_SCAN_BUDGET_PER_CALL`) is added so a 100%-excluded page can't loop the whole         phase-1 source in one call — when the budget is hit before `maxItems` is filled, a         non-empty cursor is returned at the current position.         **Scan-budget scope.** The per-call budget bounds *this view's* phase-1 loop (the         number of candidates inspected here), NOT the work inside a single underlying         `indexer.getAnchorsBySchemaAndAddressList` call. That indexer call can itself scan up         to `total` raw positions internally to fill one page when the array is dense with         revoked / non-lens entries — shared behavior with the sibling         `getDirectoryPageBySchemaAndAddressList`, which relies on the same indexer call."
      },
      "getFilesAtPath(bytes32,address[],bytes32,bytes,uint256)": {
        "notice": "PIN-based file listing with cross-attester dedup. Opaque-cursor paginated         (ADR-0036, ADR-0041). For each attester, reads the active PIN target         (cardinality 1) at `_activeBySlot[anchorUID][attester][schema]` — Shape A         file-placement reads.         Earlier attesters win on duplicate targets (ADR-0031 first-attester-wins).         Filtered-out entries (targets claimed by an earlier attester) still advance         the walker; `maxItems` bounds result size, not work."
      }
    },
    "version": 1
  },
  "storageLayout": {
    "storage": [],
    "types": null
  }
}