{
  "address": "0x44D5F6803127B442218e9aA0481A9931444dc82c",
  "abi": [
    {
      "inputs": [
        {
          "internalType": "address",
          "name": "_indexer",
          "type": "address"
        },
        {
          "internalType": "address",
          "name": "_eas",
          "type": "address"
        },
        {
          "internalType": "address",
          "name": "_edgeResolver",
          "type": "address"
        },
        {
          "internalType": "address",
          "name": "_schemaRegistry",
          "type": "address"
        },
        {
          "internalType": "bytes32",
          "name": "_dataSchemaUID",
          "type": "bytes32"
        },
        {
          "internalType": "address",
          "name": "_systemAccount",
          "type": "address"
        }
      ],
      "stateMutability": "nonpayable",
      "type": "constructor"
    },
    {
      "inputs": [
        {
          "internalType": "string",
          "name": "segment",
          "type": "string"
        }
      ],
      "name": "classifyTopLevel",
      "outputs": [
        {
          "internalType": "uint8",
          "name": "flavor",
          "type": "uint8"
        },
        {
          "internalType": "bytes32",
          "name": "uid",
          "type": "bytes32"
        }
      ],
      "stateMutability": "view",
      "type": "function"
    },
    {
      "inputs": [],
      "name": "dataSchemaUID",
      "outputs": [
        {
          "internalType": "bytes32",
          "name": "",
          "type": "bytes32"
        }
      ],
      "stateMutability": "view",
      "type": "function"
    },
    {
      "inputs": [],
      "name": "eas",
      "outputs": [
        {
          "internalType": "contract IEAS",
          "name": "",
          "type": "address"
        }
      ],
      "stateMutability": "view",
      "type": "function"
    },
    {
      "inputs": [],
      "name": "edgeResolver",
      "outputs": [
        {
          "internalType": "contract IEdgeResolverForRouter",
          "name": "",
          "type": "address"
        }
      ],
      "stateMutability": "view",
      "type": "function"
    },
    {
      "inputs": [],
      "name": "indexer",
      "outputs": [
        {
          "internalType": "contract IEFSIndexer",
          "name": "",
          "type": "address"
        }
      ],
      "stateMutability": "view",
      "type": "function"
    },
    {
      "inputs": [
        {
          "internalType": "string[]",
          "name": "resource",
          "type": "string[]"
        },
        {
          "components": [
            {
              "internalType": "string",
              "name": "key",
              "type": "string"
            },
            {
              "internalType": "string",
              "name": "value",
              "type": "string"
            }
          ],
          "internalType": "struct IDecentralizedApp.KeyValue[]",
          "name": "params",
          "type": "tuple[]"
        }
      ],
      "name": "request",
      "outputs": [
        {
          "internalType": "uint16",
          "name": "statusCode",
          "type": "uint16"
        },
        {
          "internalType": "bytes",
          "name": "body",
          "type": "bytes"
        },
        {
          "components": [
            {
              "internalType": "string",
              "name": "key",
              "type": "string"
            },
            {
              "internalType": "string",
              "name": "value",
              "type": "string"
            }
          ],
          "internalType": "struct IDecentralizedApp.KeyValue[]",
          "name": "headers",
          "type": "tuple[]"
        }
      ],
      "stateMutability": "view",
      "type": "function"
    },
    {
      "inputs": [],
      "name": "resolveMode",
      "outputs": [
        {
          "internalType": "bytes32",
          "name": "",
          "type": "bytes32"
        }
      ],
      "stateMutability": "pure",
      "type": "function"
    },
    {
      "inputs": [],
      "name": "schemaRegistry",
      "outputs": [
        {
          "internalType": "contract ISchemaRegistry",
          "name": "",
          "type": "address"
        }
      ],
      "stateMutability": "view",
      "type": "function"
    },
    {
      "inputs": [],
      "name": "systemAccount",
      "outputs": [
        {
          "internalType": "address",
          "name": "",
          "type": "address"
        }
      ],
      "stateMutability": "view",
      "type": "function"
    }
  ],
  "transactionHash": "0x95600f6aa045465798175fe981d22111b5d5ecce730621c35dd38f027cb2b557",
  "args": [
    "0xc4DeaBB482C2FA74690629eEa662efb166BD658a",
    "0xC2679fBD37d54388Ce493F1DB75320D236e1815e",
    "0xD6643DB36B20895E3E46aD08cdD4ED4BC1dBB7F1",
    "0x0a7E2Ff54e76B8E6659aedc9103FB21c038050D0",
    "0xa3400cecc384d66d84f502fd91e56dc0321edccde9ef8e49d303ba63cc841b3c",
    "0x63DEA7336C4217B7c5433eE3CB21Bb6a6813588d"
  ],
  "numDeployments": 1,
  "solcInputHash": "2b3a05a1678070c4c7de0af31d9ec578",
  "bytecode": "0x6080806040523461017d5760c081614151803803809161001f8285610182565b83398101031261017d57610032816101bb565b9061003f602082016101bb565b9061004c604082016101bb565b610058606083016101bb565b9061006a60a0608085015194016101bb565b600080546001600160a01b03199081166001600160a01b039889169081178355600180548316988a169890981790975560028054821694891694909417909355600380549093169387169390931790915560049290925590929091908316156100ff5750505b600580546001600160a01b0319166001600160a01b0392909216919091179055604051613f8190816101d08239f35b6040516360dc208d60e11b81529250602090839060049082905afa91821561017057819261012f575b50506100d0565b9091506020813d602011610168575b8161014b60209383610182565b810103126101645761015d91506101bb565b3880610128565b5080fd5b3d915061013e565b50604051903d90823e3d90fd5b600080fd5b601f909101601f19168101906001600160401b038211908210176101a557604052565b634e487b7160e01b600052604160045260246000fd5b51906001600160a01b038216820361017d5756fe6080604052600436101561001257600080fd5b60003560e01c80631374c460146100a75780631ffd2bbf146100a25780634441bbd91461009d5780638150864d1461009857806384cb71d014610093578063cb2b09d61461008e578063dd473fae14610089578063e06118b7146100845763e2af39801461007f57600080fd5b6105b4565b61058b565b610568565b61054a565b610521565b6104f8565b6104cf565b610460565b34610155576040366003190112610155576004356001600160401b03811161015557366023820112156101555780600401356100e28161021c565b916100f060405193846101da565b8183526024602084019260051b820101903682116101555760248101925b82841061015a57846024356001600160401b038111610155576101519161013c6101429236906004016102a3565b90610c65565b604093919351938493846103c4565b0390f35b600080fd5b83356001600160401b0381116101555760209161017e839260243691870101610285565b81520193019261010e565b634e487b7160e01b600052604160045260246000fd5b604081019081106001600160401b038211176101ba57604052565b610189565b608081019081106001600160401b038211176101ba57604052565b90601f801991011681019081106001600160401b038211176101ba57604052565b6040519061020a6040836101da565b565b6040519061020a610140836101da565b6001600160401b0381116101ba5760051b60200190565b6001600160401b0381116101ba57601f01601f191660200190565b92919261025a82610233565b9161026860405193846101da565b829481845281830111610155578281602093846000960137010152565b9080601f83011215610155578160206102a09335910161024e565b90565b9080601f83011215610155578135916102bb8361021c565b926102c960405194856101da565b80845260208085019160051b830101918383116101555760208101915b8383106102f557505050505090565b82356001600160401b038111610155578201906040828703601f19011261015557604051906103238261019f565b60208301356001600160401b0381116101555787602061034592860101610285565b82526040830135916001600160401b0383116101555761036d88602080969581960101610285565b838201528152019201916102e6565b60005b83811061038f5750506000910152565b818101518382015260200161037f565b906020916103b88151809281855285808601910161037c565b601f01601f1916010190565b9161ffff6103e09216835260606020840152606083019061039f565b906040818303910152815180825260208201916020808360051b8301019401926000915b83831061041357505050505090565b9091929394602080610451600193601f1986820301875289519083610441835160408452604084019061039f565b920151908481840391015261039f565b97019301930191939290610404565b34610155576020366003190112610155576004356001600160401b03811161015557366023820112156101555780600401356001600160401b0381116101555736602482840101116101555760246104b8920161165b565b6040805160ff939093168352602083019190915290f35b34610155576000366003190112610155576003546040516001600160a01b039091168152602090f35b34610155576000366003190112610155576001546040516001600160a01b039091168152602090f35b34610155576000366003190112610155576002546040516001600160a01b039091168152602090f35b34610155576000366003190112610155576020600454604051908152f35b3461015557600036600319011261015557604051633532313960e01b8152602090f35b34610155576000366003190112610155576000546040516001600160a01b039091168152602090f35b34610155576000366003190112610155576005546040516001600160a01b039091168152602090f35b604051906105ec6020836101da565b60008252565b604051906106016040836101da565b601582527409cdee8408cdeeadcc874408adae0e8f240e0c2e8d605b1b6020830152565b604051906106346020836101da565b600080835282815b82811061064857505050565b6020906040516106578161019f565b606081526060838201528282850101520161063c565b6040805190919061067e83826101da565b6001815291601f19018260005b82811061069757505050565b6020906040516106a68161019f565b606081526060838201528282850101520161068b565b604051606091906106cd83826101da565b6002815291601f19018260005b8281106106e657505050565b6020906040516106f58161019f565b60608152606083820152828285010152016106da565b634e487b7160e01b600052603260045260246000fd5b80511561072e5760200190565b61070b565b80516001101561072e5760400190565b80516002101561072e5760600190565b805182101561072e5760209160051b010190565b6004111561077157565b634e487b7160e01b600052602160045260246000fd5b90816020910312610155575190565b6040513d6000823e3d90fd5b6040906102a093928152816020820152019061039f565b634e487b7160e01b600052601160045260246000fd5b6000198101919082116107de57565b6107b9565b919082039182116107de57565b93929161080d90604092865260606020870152606086019061039f565b930152565b604051906108216040836101da565b601e82527f4e6f7420466f756e643a205061746820646f6573206e6f7420657869737400006020830152565b6040519061085c6040836101da565b60068252656c656e73657360d01b6020830152565b604051906108806040836101da565b60058252646368756e6b60d81b6020830152565b604051906108a36040836101da565b600682526531b0b63632b960d11b6020830152565b604051606091906108c983826101da565b6002815291601f1901366020840137565b604051608091906108eb83826101da565b6003815291601f1901366020840137565b6040519061090b6020836101da565b6000808352366020840137565b6040805190919061092983826101da565b6001815291601f1901366020840137565b906109448261021c565b61095160405191826101da565b8281528092610962601f199161021c565b0190602036910137565b6040519061097b6060836101da565b6029825268195b9cc81d5b9cd95d60ba1b6040837f4e6f7420466f756e643a204e6f2064617461206174746163686564206f72206c60208201520152565b604051906109c86040836101da565b601c82527f53746f726564206d6972726f722055524920697320696e76616c6964000000006020830152565b60405190610a036040836101da565b601e82527f4e6f7420466f756e643a204e6f206d6972726f7220617661696c61626c6500006020830152565b60405190610a3e6040836101da565b6007825266776562333a2f2f60c81b6020830152565b60405190610a636040836101da565b6014825273496e76616c6964206f6e2d636861696e2055524960601b6020830152565b3d15610ab1573d90610a9782610233565b91610aa560405193846101da565b82523d6000602084013e565b606090565b60405190610ac56040836101da565b600c82526b436f6e74656e742d5479706560a01b6020830152565b60405190610aef6040836101da565b60138252724368756e6b206f7574206f6620626f756e647360681b6020830152565b60405190610b206040836101da565b601482527310da1d5b9ac81c9958591a5b99c819985a5b195960621b6020830152565b6001600160a01b0381160361015557565b9081602091031261015557516102a081610b43565b90600182018092116107de57565b90603282018092116107de57565b90602882018092116107de57565b90600282018092116107de57565b90604082018092116107de57565b60020190816002116107de57565b60030190816003116107de57565b60300190816030116107de57565b919082018092116107de57565b60405190610bf56040836101da565b600f82526e776562332d6e6578742d6368756e6b60881b6020830152565b60405190610c226040836101da565b601c82527f53746f7261676520636f6e747261637420686173206e6f20636f6465000000006020830152565b90610c616020928281519485920161037c565b0190565b9081511561165157610c7f610c7983610721565b51611843565b92906000610c8c82610767565b81611552575060005460049390602090610cb6906001600160a01b03165b6001600160a01b031690565b604051630ad8f5cb60e11b815295869182905afa938415610e1057600094611531575b508360005b945b84519081871015610e935750610cf5906107cf565b8503610e3557600054610d43929190610d16906001600160a01b0316610caa565b6020610d228888610753565b5160045490604051968792839263d5399fc160e01b845287600485016107f0565b0381845afa938415610e1057600094610e15575b508315610d93575b50505b8115610d75576001829501949091610ce0565b505050505050610d83610812565b90610d8c610625565b6101949291565b610dc692935090602091610da78888610753565b51604051636658a96160e11b81529485938492839291600484016107a2565b03915afa908115610e1057600091610de2575b50903880610d5f565b610e03915060203d8111610e09575b610dfb81836101da565b810190610787565b38610dd9565b503d610df1565b610796565b610e2e91945060203d8111610e0957610dfb81836101da565b9238610d57565b600054610e5b91602091610e51906001600160a01b0316610caa565b610da78888610753565b03915afa908115610e1057600091610e75575b5090610d62565b610e8d915060203d8111610e0957610dfb81836101da565b38610e6e565b9694929550505060609060009133610ea96105dd565b936000925b8851841015610faa57610ee2610ec4858b610753565b5151610ece61084d565b906020815191012090602081519101201490565b15610f0d575050610f006020610ef8848a610753565b510151611b39565b600180935b019290610eae565b909294610f27610f1d878b610753565b5151610ece610871565b15610f44575060016020610f3b878b610753565b51015195610f05565b94610f5c610f52828b610753565b5151610ece610894565b610f69575b600190610f05565b610f786020610ef8838c610753565b8051610f85575b50610f61565b6001919350610f96610fa391610721565b516001600160a01b031690565b9290610f7f565b909250610fd493949698979597610fc089610767565b6001891480611529575b61148d575b611cfc565b9590948515611424575050610ffc610ff7610fef87876124ff565b9790966129bb565b612be0565b9484511561140a5750611016611010610a2f565b85612d04565b806113fb575b61113d575050506110f061103b61103561108593612be0565b93612be0565b9261104461066d565b84519094901561112c576040516f1d9031b7b73a32b73a16ba3cb8329e9160811b6020820152611092916110a0908290849061108590603084015b90610c4e565b601160f91b815260010190565b03601f1981018352826101da565b61107f60405195869461107f60208701602d907f6d6573736167652f65787465726e616c2d626f64793b206163636573732d747981526c38329eaaa9261d902aa9261e9160991b60208201520190565b6110f86101fb565b90611101610ab6565b8252602082015261111182610721565b5261111b81610721565b506111246105dd565b9160c8929190565b506110926111386105dd565b6110a0565b9091949261114a90612fac565b946001600160a01b038616156113ed57611163906131df565b91600095600096600080604051602081019063f91f093760e01b82526004815261118e6024826101da565b5190855afa61119b610a86565b90806113e1575b6113c2575b50156113b557861561136b578684101561135c5760008091604051602081019063015ff6d760e51b82526111e7816110928a602483019190602083019252565b51915afa6111f3610a86565b90158015611351575b61134257610caa8160208061121694518301019101610b54565b9561122084610b69565b10156113055761126761126d936112356106bc565b9661123e6101fb565b90611247610ab6565b8252602082015261125788610721565b5261126187610721565b50610b69565b91613272565b6112756101fb565b9061127e610be6565b8252602082015261128e83610733565b5261129882610733565b505b823b156112ea576112a96105dd565b92803b600181116112be575b505060c8929190565b909350600160405194600019830192603e601f19910116860160405282865260208601903c38806112b5565b9150506112f5610c13565b906112fe610625565b6101f49291565b50505061131061066d565b916113196101fb565b90611322610ab6565b8252602082015261133283610721565b5261133c82610721565b5061129a565b505050509150506112f5610b11565b5060208151106111fc565b50505050915050610d83610ae0565b50505050915061137961066d565b906113826101fb565b9061138b610ab6565b8252602082015261139b82610721565b526113a581610721565b5060c8916113b16105dd565b9190565b955050505061131061066d565b9750506113da60019760208082518301019101610787565b96386111a7565b506020815110156111a2565b5050509150506112f5610a54565b5061140584612de3565b61101c565b94505050505061141c57610d836109f4565b6112f56109b9565b94509450905060019150511461144b575b505061143f610625565b610194916113b161096c565b61145481610767565b600281146114835780611468600392610767565b146114735780611435565b61147c906120de565b9192909190565b5061147c90611f29565b6001600160a01b038a1691506114a1611c84565b6001600160a01b0384168015159084908261151e575b5050156114fc57610fcf906114f36114cd6108da565b946114ea876114db88610721565b6001600160a01b039091169052565b6114db86610733565b6114db84610743565b610fcf9061151561150b6108b8565b946114db86610721565b6114db84610733565b1415905083386114b7565b508315610fca565b61154b91945060203d602011610e0957610dfb81836101da565b9238610cd9565b61155b82610767565b6001820361157457508392849060015b94909194610cde565b8054611588906001600160a01b0316610caa565b90604051630ad8f5cb60e11b8152602081600481865afa8015610e10576115e4936020928492611632575b506115c66115c088610721565b51611a64565b604051636658a96160e11b81529586938492839291600484016107a2565b03915afa918215610e10578192611611575b5050801561160957925b8390600161156b565b508392611600565b61162b91925060203d602011610e0957610dfb81836101da565b90386115f6565b61164a919250833d8511610e0957610dfb81836101da565b90386115b3565b5050610d836105f2565b61166a9061166f92369161024e565b611843565b91906004811015610771579190565b5190811515820361015557565b81601f8201121561015557602081519101906116a681610233565b926116b460405194856101da565b81845281830111610155576102a091602084019061037c565b602081830312610155578051906001600160401b03821161015557016080818303126101555760405191611700836101bf565b81518352602082015161171281610b43565b60208401526117236040830161167e565b604084015260608201516001600160401b03811161015557611745920161168b565b606082015290565b51906001600160401b038216820361015557565b519061020a82610b43565b602081830312610155578051906001600160401b0382116101555701610140818303126101555761179b61020c565b9181518352602082015160208401526117b66040830161174d565b60408401526117c76060830161174d565b60608401526117d86080830161174d565b608084015260a082015160a08401526117f360c08301611761565b60c084015261180460e08301611761565b60e0840152611816610100830161167e565b6101008401526101208201516001600160401b0381116101555761183a920161168b565b61012082015290565b80511561186457611853816133e9565b60288114611971575b60401461186d575b50600090600090565b611876906136a3565b80611968575b1561186457600354611896906001600160a01b0316610caa565b6040516351753e3760e11b81526004810183905290600090829060249082905afa908115610e1057600091611945575b5051611940576001546118e1906001600160a01b0316610caa565b6040516328c44a9960e21b81526004810183905290600090829060249082905afa908115610e105760009161191d575b50511561186457600391565b61193a91503d806000833e61193281836101da565b81019061176c565b38611911565b600291565b61196291503d806000833e61195a81836101da565b8101906116cd565b386118c6565b5080151561187c565b6001600160a01b0361198283613559565b168061198e575061185c565b9291505060019190565b906119a282610233565b6119af60405191826101da565b8281528092610962601f1991610233565b80516007101561072e5760270190565b80516001101561072e5760210190565b80516002101561072e5760220190565b80516003101561072e5760230190565b80516004101561072e5760240190565b80516005101561072e5760250190565b80516006101561072e5760260190565b90815181101561072e570160200190565b60ff60209116019060ff82116107de57565b60ff16600a019060ff82116107de57565b90611a6f8251611998565b60005b8351811015611b255780611a99611a8b60019387611a30565b516001600160f81b03191690565b604160f81b6001600160f81b03198216908110159081611b16575b8115611b08575b5015611af557611ad0611ae09160f81c611a41565b60f81b6001600160f81b03191690565b60001a611aed8285611a30565b535b01611a72565b60001a611b028285611a30565b53611aef565b600b60fb1b14905038611abb565b602360f91b8111159150611ab4565b509150565b60001981146107de5760010190565b90815115611c7a57600160005b8351811015611b9357600b60fa1b611b71611b64611a8b8488611a30565b6001600160f81b03191690565b14611b7f575b600101611b46565b90611b8b600191611b2a565b919050611b77565b509060148211611c71575b611ba78261093a565b906000908190825b8651811015611c6857600b60fa1b611bcd611b64611a8b848b611a30565b14611bdb575b600101611baf565b9185841015611c2057611bfa611bf584611c0d938a613803565b613559565b6114db611c0686611b2a565b9587610753565b6001611c1883610b69565b929050611bd3565b91509492935b821080611c5e575b611c39575b50505090565b611c4f611bf5846114db93611c56965191613803565b9184610753565b388080611c33565b5082518110611c2e565b50949293611c26565b60149150611b9e565b90506102a06108fc565b6005546001600160a01b031660008115611c9c575090565b80546040516360dc208d60e11b8152919250602090829060049082906001600160a01b03165afa918215610e105791611cd3575090565b6102a0915060203d602011611cf5575b611ced81836101da565b810190610b54565b503d611ce3565b91600494936020611d17610caa60005460018060a01b031690565b604051630c719acf60e41b815297889182905afa958615610e1057600096611e95575b50611d43611c84565b835190919015611e2a575050509290925b60025460009290611d6d906001600160a01b0316610caa565b945b8251841015611e1c57611dc495602083611d8c610f968888610753565b604051632a9bfcbb60e21b8152600481018690526001600160a01b039091166024820152604481019190915297889081906064820190565b0381845afa968715610e1057600097611dfc575b508615611def575050506102a091610f9691610753565b9550600190930192611d6f565b611e1591975060203d8111610e0957610dfb81836101da565b9538611dd8565b505050509050600090600090565b9192509015611e40575050509050600090600090565b6001600160a01b03821615611e7957611e7190611e68611e5e6108b8565b936114db85610721565b6114db83610733565b929092611d54565b9050611e90611e86610918565b916114db83610721565b611e71565b611eaf91965060203d602011610e0957610dfb81836101da565b9438611d3a565b60405190611ec56040836101da565b600582526466616c736560d81b6020830152565b60405190611ee86040836101da565b60048252637472756560e01b6020830152565b60405190611f0a6040836101da565b601082526f30b8383634b1b0ba34b7b717b539b7b760811b6020830152565b600354611f669291600091611f46906001600160a01b0316610caa565b60405180809681946351753e3760e11b8352600483019190602083019252565b03915afa918215610e10576000926120c3575b50611f84825161388d565b6020830151611fa490611f9f906001600160a01b0316610caa565b613963565b92611fb26040820151151590565b156120b3576060611fc1611ed9565b915b0151611fce906139fc565b604051673d913ab4b2111d1160c11b602082015294859391929160288501611ff591610c4e565b6d1116113932b9b7b63b32b9111d1160911b8152600e0161201591610c4e565b6d1116113932bb37b1b0b13632911d60911b8152600e0161203591610c4e565b6a161139b1b432b6b0911d1160a91b8152600b0161205291610c4e565b61227d60f01b81526002015b03601f198101835261207090836101da565b61207861066d565b906120816101fb565b612089610ab6565b8152612093611efb565b60208201526120a183610721565b526120ab82610721565b5060c8929190565b60606120bd611eb6565b91611fc3565b6120d791923d8091833e61195a81836101da565b9038611f79565b60015461211b92916000916120fb906001600160a01b0316610caa565b60405180809681946328c44a9960e21b8352600483019190602083019252565b03915afa918215610e10576000926123bd575b50815161213a9061388d565b60208301516121489061388d565b60e08401519091906001600160a01b031661216290613963565b60c08501516001600160a01b031661217990613963565b60a08601516121879061388d565b604051673d913ab4b2111d1160c11b6020820152948594919391602886016121ae91610c4e565b6b11161139b1b432b6b0911d1160a11b8152600c016121cc91610c4e565b6d11161130ba3a32b9ba32b9111d1160911b8152600e016121ec91610c4e565b6e1116113932b1b4b834b2b73a111d1160891b8152600f0161220d91610c4e565b6b1116113932b32aa4a2111d1160a11b8152600c0161222b91610c4e565b601160f91b815260010103601f198101825261224790826101da565b604083015161225e906001600160401b0316613b22565b6060840151612275906001600160401b0316613b22565b93608081015161228b906001600160401b031690565b6001600160401b031661229d90613b22565b906101008101516122ad90151590565b156123ac576101206122bd611ed9565b915b01516122ca90613bc4565b6040516716113a34b6b2911d60c11b6020820152968794919391602886016122f191610c4e565b71161132bc3834b930ba34b7b72a34b6b2911d60711b815260120161231591610c4e565b7116113932bb37b1b0ba34b7b72a34b6b2911d60711b815260120161233991610c4e565b6c16113932bb37b1b0b13632911d60991b8152600d0161235891610c4e565b6816113230ba30911d1160b91b815260090161237391610c4e565b61227d60f01b815260020103601f198101845261239090846101da565b604051928391602083016123a391610c4e565b61205e91610c4e565b6101206123b7611eb6565b916122bf565b6123d191923d8091833e61193281836101da565b903861212e565b602081830312610155578051906001600160401b03821161015557019080601f8301121561015557815161240b8161021c565b9261241960405194856101da565b81845260208085019260051b82010192831161015557602001905b8282106124415750505090565b8151815260209182019101612434565b90816020910312610155576102a09061167e565b9190916040818403126101555780519260208201516001600160401b038111610155576102a0920161168b565b604051906124a16040836101da565b600582526461723a2f2f60d81b6020830152565b604051906124c46040836101da565b6007825266697066733a2f2f60c81b6020830152565b604051906124e96040836101da565b600782526636b0b3b732ba1d60c91b6020830152565b60005491929091612518906001600160a01b0316610caa565b91604051936319688b1f60e11b8552602085600481875afa948515610e105760009561293a575b50841561292d57604051639a86ffd760e01b815260048101839052602481018690526001600160a01b038216604482015293602085606481845afa948515610e105760009561290c575b5084156128f85761259b9392936105dd565b91606392600091829883976125ba610caa60015460018060a01b031690565b995b808a10806128ee575b156128de576125da61264498999a9b9c611b2a565b6125e48c836107e3565b60328110156128d4576000905b604051631cd3ac9b60e21b815260048101869052602481018790526001600160a01b0388166044820152606481018f90526084810191909152600160a4820152600060c4820152998a90819060e4820190565b03818b5afa988915610e10576000996128b1575b509091929394956000905b895182101561288e57906126a3979695949392916020612683838d610753565b51604051809b8192634294857f60e01b8352600483019190602083019252565b03818d5afa8015610e10578f99600091612860575b50612856575060006126f0986126ce838d610753565b519060405180809c81946328c44a9960e21b8352600483019190602083019252565b03915afa978815610e105760009861283b575b5061271e610120600199015160208082518301019101612465565b905061273161272b610a2f565b82612d04565b156127f05760005b8c8110612754575b50506001905b0190919293949596612663565b9197829c919c1561276d5750506001909a969038612741565b9695949392915098966127858c9d9e9b999f9c612fac565b6001600160a01b038116156127d95761279d8e612de3565b90816127cf575b506127b9575050505050505050505050509190565b600191929394959697999b9e989a9d9c50612747565b90503b15386127a4565b50600191929394959697999b9e989a9d9c50612747565b6127fb61272b612492565b156128065788612739565b61281161272b6124b5565b1561281d576002612739565b61282861272b6124da565b15612834576003612739565b6004612739565b61284f91983d8091833e61193281836101da565b9638612703565b9750600190612747565b612881915060203d8111612887575b61287981836101da565b810190612451565b386126b8565b503d61286f565b9294969b90506128a19193959850610b77565b989796929a99939094919a6125bc565b6128cd91993d8091833e6128c581836101da565b8101906123d8565b9738612658565b50600060326125f1565b5050505094509550505091509190565b50600a8c106125c5565b5050509150506129066105dd565b90600090565b61292691955060203d602011610e0957610dfb81836101da565b9338612589565b50509150506129066105dd565b61295491955060203d602011610e0957610dfb81836101da565b933861253f565b6040519061296a6040836101da565b601882527f6170706c69636174696f6e2f6f637465742d73747265616d00000000000000006020830152565b906020828203126101555781516001600160401b038111610155576102a0920161168b565b6000549091906129d3906001600160a01b0316610caa565b6040516301a5d16f60e21b81529290602084600481845afa918215610e1057612a4e94600093612bbe575b5060405163d5399fc160e01b8152600481019190915260606024820152600b60648201526a636f6e74656e745479706560a81b6084820152604481018390529360209185918290819060a4820190565b03915afa928315610e1057600093612b9d575b508215612b9257600254612ac2936020939091612a86906001600160a01b0316610caa565b604051632a9bfcbb60e21b815260048101939093526001600160a01b039091166024830152604482019290925292839190829081906064820190565b03915afa908115610e1057600091612b73575b508015612b4f57600154612b1891600091612af8906001600160a01b0316610caa565b60405180809581946328c44a9960e21b8352600483019190602083019252565b03915afa908115610e1057612b459161012091600091612b58575b50015160208082518301019101612996565b805115612b4f5790565b506102a061295b565b612b6d91503d806000833e61193281836101da565b38612b33565b612b8c915060203d602011610e0957610dfb81836101da565b38612ad5565b5050506102a061295b565b612bb791935060203d602011610e0957610dfb81836101da565b9138612a61565b6020929350612bd990833d8511610e0957610dfb81836101da565b92916129fe565b906000805b8351811015612c5d57612bfb611a8b8286611a30565b6001600160f81b03198116601160f91b811415919082612c4e575b5081612c3f575b50612c2b575b600101612be5565b90612c37600191611b2a565b919050612c23565b6020915060f81c101538612c1d565b601760fa1b1415915038612c16565b5082518114612d0157612c6f90611998565b6000805b8451821015612cfa57612c89611a8b8387611a30565b916001600160f81b03198316601160f91b8114159081612ceb575b5080612cdd575b612cba575b6001019150612c73565b600191612cd4612cc982611b2a565b9460001a9186611a30565b53829150612cb0565b5060208360f81c1015612cab565b601760fa1b1415905038612ca4565b5090925050565b50565b908051825110612d615760005b8151811015612d59576001600160f81b0319612d2d8285611a30565b51166001600160f81b0319612d428385611a30565b511603612d5157600101612d11565b505050600090565b505050600190565b5050600090565b90600a820291808304600a14901517156107de57565b908160041b91808304601014901517156107de57565b908160011b91808304600214901517156107de57565b60ff602f199116019060ff82116107de57565b60ff6060199116019060ff82116107de57565b60ff6040199116019060ff82116107de57565b6031815110612ed2576007600360fc1b6001600160f81b0319612e08611a8b856119c0565b161480612f22575b612f1a575b612e1e90610b85565b9080518210801590612ef6575b612eef57600091612e3d600091610b69565b925b8251841015612ee657612e55611a8b8585611a30565b91600360fc1b6001600160f81b03198416908110908115612ed8575b50612ec2575090612e99612e93612e8a612e9f94612d68565b9260f81c612daa565b60ff1690565b90610bd9565b916001906001600160401b038411612eb957810192612e3f565b50505050600090565b92509250505b15612ed257461490565b50600190565b603960f81b10905038612e71565b92509050612ec8565b5050600190565b50601d60f91b6001600160f81b0319612f12611a8b8585611a30565b161415612e2b565b506009612e15565b50600f60fb1b6001600160f81b0319612f3f611a8b600886611a30565b161480612e105750600b60fb1b6001600160f81b0319612f63611a8b600886611a30565b1614612e10565b600481901b6010600160a01b031691906001600160a01b0316801590830460101417156107de57565b6001600160a01b0391821690821601919082116107de57565b603181511061310757607760f81b6001600160f81b0319612fcf611a8b84610721565b16148015906131bc575b8015613199575b8015613176575b8015613153575b8015613130575b801561310d575b61310757600790600360fc1b6001600160f81b031961301d611a8b846119c0565b1614806130bf575b6130b6575b805161303583610b85565b11612d6157906000916000905b60288210613059575050506001600160a01b031690565b90919260ff61308561308061307a611a8b613074888a610bd9565b87611a30565b60f81c90565b613c7a565b169060ff82146130ac5760019161309e6130a392612f6a565b612f93565b93920190613042565b5050505050600090565b6009915061302a565b50600f60fb1b6001600160f81b03196130dc611a8b600885611a30565b1614806130255750600b60fb1b6001600160f81b0319613100611a8b600885611a30565b1614613025565b50600090565b50602f60f81b6001600160f81b0319613128611a8b84611a20565b161415612ffc565b50602f60f81b6001600160f81b031961314b611a8b84611a10565b161415612ff5565b50601d60f91b6001600160f81b031961316e611a8b84611a00565b161415612fee565b50603360f81b6001600160f81b0319613191611a8b846119f0565b161415612fe7565b50603160f91b6001600160f81b03196131b4611a8b846119e0565b161415612fe0565b50606560f81b6001600160f81b03196131d7611a8b846119d0565b161415612fd9565b805115613107576000805b825182101561324d576132076132008385611a30565b5160f81c90565b9060ff821660308110159081613241575b5015612eb957600191612e99612e9361323361323994612d68565b92612daa565b9101906131ea565b60399150111538613218565b91505090565b604051906132626040836101da565b60018252602f60f81b6020830152565b9291909161327e6105dd565b916000925b85518410156132d3576132be6132cb6001926110926132ab6132a5898c610753565b51613d4d565b61107f6040519586946020860190610c4e565b602f60f81b815260010190565b930192613283565b925092909351156133d9575b604051603f60f81b60208201526132f98160218101611092565b916000925b825184101561339657613314610f1d8585610753565b61338d5761107f6133846001926110926133778761107f61336a61335960206133518e61334b6133448289610753565b5151613d4d565b96610753565b510151613d4d565b926040519889976020890190610c4e565b603d60f81b815260010190565b601360f91b815260010190565b935b01926132fe565b92600190613386565b6102a093506110929192506133c96133b7916110926132ab61107f98613b22565b656368756e6b3d60d01b815260060190565b6040519485936020850190610c4e565b90506133e3613253565b906132df565b60005b8151811080613536575b156134095761340490611b2a565b6133ec565b9061341382610b69565b81511180613513575b806134c3575b6134b3575b60005b6134348184610bd9565b8251118061348b575b156134505761344b90611b2a565b61342a565b918261345b91610bd9565b815181101561348657600160fd1b613479611b64611a8b8486611a30565b03612d515760010161345b565b505090565b5060ff806134ab61308061307a611a8b6134a5878a610bd9565b88611a30565b16141561343d565b906134bd90610b93565b90613427565b50600f60fb1b6001600160f81b03196134e7611a8b6134e186610b69565b85611a30565b1614806134225750600b60fb1b6001600160f81b031961350c611a8b6134e186610b69565b1614613422565b50600360fc1b6001600160f81b031961352f611a8b8585611a30565b161461341c565b50600160fd1b6001600160f81b0319613552611a8b8486611a30565b16146133f6565b60005b8151811080613680575b156135795761357490611b2a565b61355c565b9061358382610b69565b8151118061365d575b80613613575b613603575b80516135a283610b85565b11612d6157906000916000905b602882106135c6575050506001600160a01b031690565b90919260ff6135e161308061307a611a8b613074888a610bd9565b169060ff82146130ac5760019161309e6135fa92612f6a565b939201906135af565b9061360d90610b93565b90613597565b50600f60fb1b6001600160f81b0319613631611a8b6134e186610b69565b1614806135925750600b60fb1b6001600160f81b0319613656611a8b6134e186610b69565b1614613592565b50600360fc1b6001600160f81b0319613679611a8b8585611a30565b161461358c565b50600160fd1b6001600160f81b031961369c611a8b8486611a30565b1614613566565b60005b81518110806137e0575b156136c3576136be90611b2a565b6136a6565b906136cd82610b69565b815111806137bd575b80613773575b613763575b80516136ec83610ba1565b1161375957906000916000905b6040821061370a5750505090600190565b90919260ff61372561308061307a611a8b613074888a610bd9565b169060ff821461374c5760019161373e61374392612d7e565b610bd9565b939201906136f9565b5050505050600090600090565b5050600090600090565b9061376d90610b93565b906136e1565b50600f60fb1b6001600160f81b0319613791611a8b6134e186610b69565b1614806136dc5750600b60fb1b6001600160f81b03196137b6611a8b6134e186610b69565b16146136dc565b50600360fc1b6001600160f81b03196137d9611a8b8585611a30565b16146136d6565b50600160fd1b6001600160f81b03196137fc611a8b8486611a30565b16146136b0565b918181038181116107de5761381790611998565b92825b828110613828575050505090565b6001600160f81b031961383b8284611a30565b5116908481038181116107de5761385860019360001a9188611a30565b530161381a565b6040519061386e6040836101da565b601082526f181899199a1a9b1b9c1cb0b131b232b360811b6020830152565b61389561385f565b906138a06042610233565b916138ae60405193846101da565b60428352601f196138bf6042610233565b0136602085013760306138d184610721565b5360786138dd846119d0565b5360005b602081106138ef5750505090565b60019061393d611a8b600f86841a61391683613910600484901c8516612e93565b89611a30565b61393561392a61392588612d94565b610baf565b9160001a918b611a30565b531685611a30565b61395c61395161394c84612d94565b610bbd565b9160001a9187611a30565b53016138e1565b61396b61385f565b60405191606061397b81856101da565b602a8452601f1901366020850137603061399484610721565b5360786139a0846119d0565b5360601b6bffffffffffffffffffffffff19169060005b601481106139c55750505090565b6001906139e6611a8b600f86841a61391683613910600484901c8516612e93565b6139f561395161394c84612d94565b53016139b7565b906000805b8351811015613a6b57601160f91b613a1f611b64611a8b8488611a30565b148015613a48575b613a34575b600101613a01565b90613a40600191611b2a565b919050613a2c565b50601760fa1b6001600160f81b0319613a64611a8b8488611a30565b1614613a27565b508015612d0157613a80613a85918451610bd9565b611998565b600092835b8151811015612cfa57600190601160f91b613aab611b64611a8b8487611a30565b148015613aff575b613ae4575b613ac5611a8b8285611a30565b95613add613ad282611b2a565b9760001a9186611a30565b5301613a8a565b605c613af9613af288611b2a565b9786611a30565b53613ab8565b50601760fa1b6001600160f81b0319613b1b611a8b8487611a30565b1614613ab3565b908115613ba357600082805b613b84575080613b3e8492611998565b915b613b4957509150565b613b55613b7d916107cf565b93613b68611ad0612e93600a8406610bcb565b60001a613b758685611a30565b53600a900490565b9283613b40565b9290613b92613b9a91611b2a565b93600a900490565b80939193613b2e565b9050604051613bb36040826101da565b60018152600360fc1b602082015290565b90613bcd61385f565b91613bde613a806139258351612d94565b906030613bea83610721565b536078613bf6836119d0565b5360005b8151811015612cfa5780613c59611a8b600f613c1b61320060019688611a30565b613c37611a8b613c31600484901c600f16612e93565b8c611a30565b613c51613c4661392588612d94565b9160001a918a611a30565b531688611a30565b613c73613c6861394c84612d94565b9160001a9186611a30565b5301613bfa565b60f881901b6001600160f81b031916600360fc1b81101580613d11575b613d0757606160f81b81101580613cf9575b613ce757604160f81b8110159081613cd8575b50613cc7575060ff90565b613cd36102a091611a53565b612dd0565b602360f91b1015905038613cbc565b50613cf46102a091611a53565b612dbd565b50603360f91b811115613ca9565b506102a090612daa565b50603960f81b811115613c97565b60405190613d2e6040836101da565b601082526f181899199a1a9b1b9c1ca0a121a222a360811b6020830152565b90613d56613d1f565b90600090815b8451831015613da457613d93600191613d83613d7e61307a611a8b888b611a30565b613e9e565b15613d9b5760ff835b1690610bd9565b920191613d5c565b60ff6003613d8c565b9092915083518114613e9a57613db990611998565b906000805b8551811015613e9257613dd761307a611a8b8389611a30565b90613de182613e9e565b15613e175782613e0f613df76001949592611b2a565b9460f81b6001600160f81b03191660001a9187611a30565b535b01613dbe565b613e74611a8b600f6001946025613e37613e3089611b2a565b988b611a30565b53613e54611a8b613e4e600484901c600f16612e93565b8a611a30565b96613e6c613e6182611b2a565b9860001a918b611a30565b531686611a30565b92613e8c613e8182611b2a565b9460001a9187611a30565b53613e11565b509193505050565b5050565b60ff1660418110159081613f3f575b8115613f21575b8115613f03575b8115613ef8575b8115613eed575b8115613ee2575b8115613eda575090565b607e91501490565b605f81149150613ed0565b602e81149150613ec9565b602d81149150613ec2565b9050603081101580613f16575b90613ebb565b506039811115613f10565b9050606181101580613f34575b90613eb4565b50607a811115613f2e565b605a8111159150613ead56fea264697066735822122015bf3b78bcb882715fc048da8f4fb96ea15290bd499ec7b5844f93bc19a917e864736f6c634300081a0033",
  "devdoc": {
    "kind": "dev",
    "methods": {
      "classifyTopLevel(string)": {
        "details": "Exposed so off-chain clients can keep their own classifier byte-identical         to the on-chain one (ADR-0033). Pure view; can be cached by clients. The         returned flavor is a uint8-cast enum: 0 = Anchor, 1 = Address, 2 = Schema,         3 = Attestation (order matches the ContainerFlavor enum declaration)."
      }
    },
    "stateVariables": {
      "MAX_LENSES": {
        "details": "Maximum number of lens addresses accepted in a single `?lenses=` query param.      Prevents crafted URLs from causing unbounded `_parseAddressList` gas in RPC nodes."
      }
    },
    "version": 1
  },
  "userdoc": {
    "kind": "user",
    "methods": {
      "classifyTopLevel(string)": {
        "notice": "Public wrapper around the URL top-level classifier."
      },
      "systemAccount()": {
        "notice": "The SystemAccount (ADR-0053) — the neutral, code-governed `system` lens. Used as         the tail of the default-lens chain (ADR-0039): when no `?lenses=` is given, content         falls back to `system` (the bootstrap scaffolding / official defaults author), not         the throwaway deployer EOA. The router is a redeployable view (its address is in no         schema UID), so pointing the fallback here is a view-config change, not a frozen one         — it does NOT touch the kernel's immutable `DEPLOYER`/owner or the auto-tag path."
      }
    },
    "version": 1
  },
  "storageLayout": {
    "storage": [
      {
        "astId": 380,
        "contract": "contracts/EFSRouter.sol:EFSRouter",
        "label": "indexer",
        "offset": 0,
        "slot": "0",
        "type": "t_contract(IEFSIndexer)332"
      },
      {
        "astId": 383,
        "contract": "contracts/EFSRouter.sol:EFSRouter",
        "label": "eas",
        "offset": 0,
        "slot": "1",
        "type": "t_contract(IEAS)375"
      },
      {
        "astId": 386,
        "contract": "contracts/EFSRouter.sol:EFSRouter",
        "label": "edgeResolver",
        "offset": 0,
        "slot": "2",
        "type": "t_contract(IEdgeResolverForRouter)345"
      },
      {
        "astId": 389,
        "contract": "contracts/EFSRouter.sol:EFSRouter",
        "label": "schemaRegistry",
        "offset": 0,
        "slot": "3",
        "type": "t_contract(ISchemaRegistry)118"
      },
      {
        "astId": 391,
        "contract": "contracts/EFSRouter.sol:EFSRouter",
        "label": "dataSchemaUID",
        "offset": 0,
        "slot": "4",
        "type": "t_bytes32"
      },
      {
        "astId": 394,
        "contract": "contracts/EFSRouter.sol:EFSRouter",
        "label": "systemAccount",
        "offset": 0,
        "slot": "5",
        "type": "t_address"
      }
    ],
    "types": {
      "t_address": {
        "encoding": "inplace",
        "label": "address",
        "numberOfBytes": "20"
      },
      "t_bytes32": {
        "encoding": "inplace",
        "label": "bytes32",
        "numberOfBytes": "32"
      },
      "t_contract(IEAS)375": {
        "encoding": "inplace",
        "label": "contract IEAS",
        "numberOfBytes": "20"
      },
      "t_contract(IEFSIndexer)332": {
        "encoding": "inplace",
        "label": "contract IEFSIndexer",
        "numberOfBytes": "20"
      },
      "t_contract(IEdgeResolverForRouter)345": {
        "encoding": "inplace",
        "label": "contract IEdgeResolverForRouter",
        "numberOfBytes": "20"
      },
      "t_contract(ISchemaRegistry)118": {
        "encoding": "inplace",
        "label": "contract ISchemaRegistry",
        "numberOfBytes": "20"
      }
    }
  }
}