{
  "address": "0xCc182611B572b5C162a3D96674E821C61ac658FC",
  "abi": [
    {
      "inputs": [
        {
          "internalType": "contract IEAS",
          "name": "_eas",
          "type": "address"
        },
        {
          "internalType": "contract ListEntryResolver",
          "name": "_resolver",
          "type": "address"
        },
        {
          "internalType": "bytes32",
          "name": "listSchemaUID",
          "type": "bytes32"
        },
        {
          "internalType": "bytes32",
          "name": "listEntrySchemaUID",
          "type": "bytes32"
        }
      ],
      "stateMutability": "nonpayable",
      "type": "constructor"
    },
    {
      "inputs": [],
      "name": "LIST_ENTRY_SCHEMA_UID",
      "outputs": [
        {
          "internalType": "bytes32",
          "name": "",
          "type": "bytes32"
        }
      ],
      "stateMutability": "view",
      "type": "function"
    },
    {
      "inputs": [],
      "name": "LIST_SCHEMA_UID",
      "outputs": [
        {
          "internalType": "bytes32",
          "name": "",
          "type": "bytes32"
        }
      ],
      "stateMutability": "view",
      "type": "function"
    },
    {
      "inputs": [
        {
          "internalType": "bytes32",
          "name": "listUID",
          "type": "bytes32"
        },
        {
          "internalType": "address",
          "name": "attester",
          "type": "address"
        },
        {
          "internalType": "bytes32",
          "name": "identityKey",
          "type": "bytes32"
        }
      ],
      "name": "countOf",
      "outputs": [
        {
          "internalType": "uint256",
          "name": "",
          "type": "uint256"
        }
      ],
      "stateMutability": "view",
      "type": "function"
    },
    {
      "inputs": [],
      "name": "eas",
      "outputs": [
        {
          "internalType": "contract IEAS",
          "name": "",
          "type": "address"
        }
      ],
      "stateMutability": "view",
      "type": "function"
    },
    {
      "inputs": [
        {
          "internalType": "bytes32",
          "name": "listUID",
          "type": "bytes32"
        },
        {
          "internalType": "address",
          "name": "attester",
          "type": "address"
        },
        {
          "internalType": "uint256",
          "name": "start",
          "type": "uint256"
        },
        {
          "internalType": "uint256",
          "name": "len",
          "type": "uint256"
        }
      ],
      "name": "entries",
      "outputs": [
        {
          "components": [
            {
              "internalType": "bytes32",
              "name": "entryUID",
              "type": "bytes32"
            },
            {
              "internalType": "uint8",
              "name": "targetType",
              "type": "uint8"
            },
            {
              "internalType": "bytes32",
              "name": "identityKey",
              "type": "bytes32"
            }
          ],
          "internalType": "struct IListReader.Entry[]",
          "name": "",
          "type": "tuple[]"
        }
      ],
      "stateMutability": "view",
      "type": "function"
    },
    {
      "inputs": [
        {
          "internalType": "bytes32",
          "name": "listUID",
          "type": "bytes32"
        }
      ],
      "name": "getMode",
      "outputs": [
        {
          "components": [
            {
              "internalType": "bool",
              "name": "exists",
              "type": "bool"
            },
            {
              "internalType": "address",
              "name": "curator",
              "type": "address"
            },
            {
              "internalType": "bool",
              "name": "allowsDuplicates",
              "type": "bool"
            },
            {
              "internalType": "bool",
              "name": "appendOnly",
              "type": "bool"
            },
            {
              "internalType": "uint8",
              "name": "targetType",
              "type": "uint8"
            },
            {
              "internalType": "bytes32",
              "name": "targetSchema",
              "type": "bytes32"
            },
            {
              "internalType": "uint256",
              "name": "maxEntries",
              "type": "uint256"
            }
          ],
          "internalType": "struct IListReader.ListMode",
          "name": "m",
          "type": "tuple"
        }
      ],
      "stateMutability": "view",
      "type": "function"
    },
    {
      "inputs": [
        {
          "internalType": "address",
          "name": "a",
          "type": "address"
        }
      ],
      "name": "identityKeyForAddress",
      "outputs": [
        {
          "internalType": "bytes32",
          "name": "",
          "type": "bytes32"
        }
      ],
      "stateMutability": "pure",
      "type": "function"
    },
    {
      "inputs": [
        {
          "internalType": "bytes32",
          "name": "k",
          "type": "bytes32"
        }
      ],
      "name": "identityKeyForMemberKey",
      "outputs": [
        {
          "internalType": "bytes32",
          "name": "",
          "type": "bytes32"
        }
      ],
      "stateMutability": "pure",
      "type": "function"
    },
    {
      "inputs": [
        {
          "internalType": "bytes32",
          "name": "uid",
          "type": "bytes32"
        }
      ],
      "name": "identityKeyForUID",
      "outputs": [
        {
          "internalType": "bytes32",
          "name": "",
          "type": "bytes32"
        }
      ],
      "stateMutability": "pure",
      "type": "function"
    },
    {
      "inputs": [
        {
          "internalType": "bytes32",
          "name": "listUID",
          "type": "bytes32"
        },
        {
          "internalType": "address",
          "name": "attester",
          "type": "address"
        }
      ],
      "name": "length",
      "outputs": [
        {
          "internalType": "uint256",
          "name": "",
          "type": "uint256"
        }
      ],
      "stateMutability": "view",
      "type": "function"
    },
    {
      "inputs": [],
      "name": "resolver",
      "outputs": [
        {
          "internalType": "contract ListEntryResolver",
          "name": "",
          "type": "address"
        }
      ],
      "stateMutability": "view",
      "type": "function"
    },
    {
      "inputs": [
        {
          "internalType": "bytes32",
          "name": "listUID",
          "type": "bytes32"
        },
        {
          "internalType": "address",
          "name": "lens",
          "type": "address"
        },
        {
          "internalType": "bytes32",
          "name": "entryUID",
          "type": "bytes32"
        }
      ],
      "name": "targetAsAddress",
      "outputs": [
        {
          "internalType": "address",
          "name": "",
          "type": "address"
        }
      ],
      "stateMutability": "view",
      "type": "function"
    },
    {
      "inputs": [
        {
          "internalType": "bytes32",
          "name": "listUID",
          "type": "bytes32"
        },
        {
          "internalType": "address",
          "name": "lens",
          "type": "address"
        },
        {
          "internalType": "bytes32",
          "name": "entryUID",
          "type": "bytes32"
        }
      ],
      "name": "targetAsMemberKey",
      "outputs": [
        {
          "internalType": "bytes32",
          "name": "",
          "type": "bytes32"
        }
      ],
      "stateMutability": "view",
      "type": "function"
    },
    {
      "inputs": [
        {
          "internalType": "bytes32",
          "name": "listUID",
          "type": "bytes32"
        },
        {
          "internalType": "address",
          "name": "lens",
          "type": "address"
        },
        {
          "internalType": "bytes32",
          "name": "entryUID",
          "type": "bytes32"
        }
      ],
      "name": "targetAsUID",
      "outputs": [
        {
          "internalType": "bytes32",
          "name": "",
          "type": "bytes32"
        }
      ],
      "stateMutability": "view",
      "type": "function"
    }
  ],
  "transactionHash": "0x24150d2fa081b0e9e7e648a9ab82eab0878f1a3d316f2cf89c454466a6672a41",
  "args": [
    "0xC2679fBD37d54388Ce493F1DB75320D236e1815e",
    "0x7a14832E355d5937019C3D0b72bd11F2dbD5e513",
    "0x2e2801910184228802919fcc6f20c7e6c9e9c12fb8ae7a1f4e516cd3eeec6a59",
    "0x9a22c62bf63ef3a04412c124747df97d9f9e81376fa202d4ed514d0a5e6c9af1"
  ],
  "numDeployments": 1,
  "solcInputHash": "9f17ed61f3cd31c80652094a03c8ed83",
  "bytecode": "0x6101003461020c57601f61124838819003918201601f19168301916001600160401b038311848410176102115780849260809460405283398101031261020c5780516001600160a01b038116919082810361020c576020820151906001600160a01b03821680830361020c576060604085015194015194156101d957156101a157821561015c5783156101175760805260a05260c05260e0526040516110209081610228823960805181818160ef0152818161060001528181610b9c01528181610cf30152610e4b015260a05181818161017d0152818161057c015281816106b50152610803015260c0518181816103f30152818161045a01528181610c3d0152610d97015260e0518181816106470152610e860152f35b60405162461bcd60e51b815260206004820152601a60248201527f6c697374456e747279536368656d61554944206973207a65726f0000000000006044820152606490fd5b60405162461bcd60e51b815260206004820152601560248201527f6c697374536368656d61554944206973207a65726f00000000000000000000006044820152606490fd5b60405162461bcd60e51b815260206004820152601060248201526f7265736f6c766572206973207a65726f60801b6044820152606490fd5b60405162461bcd60e51b815260206004820152600b60248201526a656173206973207a65726f60a81b6044820152606490fd5b600080fd5b634e487b7160e01b600052604160045260246000fdfe6080604052600436101561001257600080fd5b60003560e01c8063039854261461083257806304f3bcec146107ed578063097e41af14610778578063487a6c6a146106ef5780635188f7ec1461066a5780635c323872146105345780635e152e771461062f5780638150864d146105ea57806382cf4eee14610539578063839b0250146105345780638488a854146104ae5780638af4b9eb1461047d578063cc41d388146104425763cd0d9cd8146100b657600080fd5b3461043d57608036600319011261043d576004356100d26108a6565b6040516328c44a9960e21b815260048101839052906000826024817f00000000000000000000000000000000000000000000000000000000000000006001600160a01b03165afa9182156103b957600092610418575b5060009180511515806103eb575b6103c5575b5060405163023595d160e11b815260048101939093526001600160a01b03908116602484015260448035908401526064803590840152600090839060849082907f0000000000000000000000000000000000000000000000000000000000000000165afa9182156103b9576000926102d4575b508151916101bb83610c94565b926101c96040519485610952565b8084526101d8601f1991610c94565b0160005b8181106102a857505060005b815181101561024857806101fe60019284610cac565b5151602061020c8386610cac565b5101516040519161021c83610903565b825260ff8616602083015260408201526102368287610cac565b526102418186610cac565b50016101e8565b8360405180916020820160208352815180915260206040840192019060005b818110610275575050500390f35b9193509160206060600192604087518051835260ff85820151168584015201516040820152019401910191849392610267565b6020906040516102b781610903565b6000815260008382015260006040820152828288010152016101dc565b90913d8082843e6102e58184610952565b8201916020818403126103b55780519067ffffffffffffffff82116103b1570182601f820112156103b55780519161031c83610c94565b9361032a6040519586610952565b83855260208086019460061b840101928184116103b157602001935b83851061035957505050505090386101ae565b6040858303126103b1576040516040810181811067ffffffffffffffff82111761039d57916020916040938452875181528288015183820152815201940193610346565b634e487b7160e01b85526041600452602485fd5b8280fd5b5080fd5b6040513d6000823e3d90fd5b6103df919250610120015160208082518301019101610aed565b5050915050903861013b565b5060208101517f000000000000000000000000000000000000000000000000000000000000000014610136565b6104369192503d806000833e61042e8183610952565b8101906109aa565b9038610128565b600080fd5b3461043d57600036600319011261043d5760206040517f00000000000000000000000000000000000000000000000000000000000000008152f35b3461043d57602036600319011261043d576004356001600160a01b0381169081900361043d57602090604051908152f35b3461043d576104bc366108bc565b600160ff6104cb859495610cd6565b91505016036104f9576020926001600160a01b039260c0926104ee929091610dd7565b015116604051908152f35b60405162461bcd60e51b81526020600482015260136024820152721b9bdd08105111148b5d1e5c1959081b1a5cdd606a1b6044820152606490fd5b6108e6565b3461043d57610547366108bc565b6040516259ecfd60e51b8152600481019390935260248301526001600160a01b039081166044830152602090829060649082907f0000000000000000000000000000000000000000000000000000000000000000165afa80156103b9576000906105b7575b602090604051908152f35b506020813d6020116105e2575b816105d160209383610952565b8101031261043d57602090516105ac565b3d91506105c4565b3461043d57600036600319011261043d576040517f00000000000000000000000000000000000000000000000000000000000000006001600160a01b03168152602090f35b3461043d57600036600319011261043d5760206040517f00000000000000000000000000000000000000000000000000000000000000008152f35b3461043d57604036600319011261043d576106836108a6565b60405163232dc0e760e21b815260048035908201526001600160a01b03918216602482015290602090829060449082907f0000000000000000000000000000000000000000000000000000000000000000165afa80156103b9576000906105b757602090604051908152f35b3461043d576106fd366108bc565b9060ff61070984610cd6565b9150501661073e576107246107349261012092602095610dd7565b0151828082518301019101610c7e565b9050604051908152f35b60405162461bcd60e51b81526020600482015260126024820152711b9bdd081053964b5d1e5c1959081b1a5cdd60721b6044820152606490fd5b3461043d57610786366108bc565b90600260ff61079485610cd6565b91505016036107b0576107246107349261012092602095610dd7565b60405162461bcd60e51b81526020600482015260156024820152741b9bdd0814d0d21153504b5d1e5c1959081b1a5cdd605a1b6044820152606490fd5b3461043d57600036600319011261043d576040517f00000000000000000000000000000000000000000000000000000000000000006001600160a01b03168152602090f35b3461043d57602036600319011261043d5760e0610850600435610b2c565b60c06040519180511515835260018060a01b03602082015116602084015260408101511515604084015260608101511515606084015260ff608082015116608084015260a081015160a0840152015160c0820152f35b602435906001600160a01b038216820361043d57565b606090600319011261043d57600435906024356001600160a01b038116810361043d579060443590565b3461043d57602036600319011261043d5760206040516004358152f35b6060810190811067ffffffffffffffff82111761091f57604052565b634e487b7160e01b600052604160045260246000fd5b610140810190811067ffffffffffffffff82111761091f57604052565b90601f8019910116810190811067ffffffffffffffff82111761091f57604052565b519067ffffffffffffffff8216820361043d57565b51906001600160a01b038216820361043d57565b5190811515820361043d57565b60208183031261043d5780519067ffffffffffffffff821161043d5701906101408282031261043d57604051916109e083610935565b80518352602081015160208401526109fa60408201610974565b6040840152610a0b60608201610974565b6060840152610a1c60808201610974565b608084015260a081015160a0840152610a3760c08201610989565b60c0840152610a4860e08201610989565b60e0840152610a5a610100820161099d565b6101008401526101208101519067ffffffffffffffff821161043d570181601f8201121561043d5780519067ffffffffffffffff821161091f5760405192610aac601f8401601f191660200185610952565b8284526020838301011161043d5760005b828110610ad857505060206000918301015261012082015290565b80602080928401015182828701015201610abd565b908160a091031261043d57610b018161099d565b91610b0e6020830161099d565b91604081015160ff8116810361043d57916080606083015192015190565b906040519160e0830183811067ffffffffffffffff82111761091f576040526000835260006020840152600060408401526000606084015260006080840152600060a0840152600060c084015282604051916328c44a9960e21b8352600483015260008260248160018060a01b037f0000000000000000000000000000000000000000000000000000000000000000165afa9182156103b957600092610c63575b508151158015610c35575b610c30575060ff610bf761012083015160208082518301019101610aed565b60c089015260a088015290921660808601529015156060850152151560408401526001835260e001516001600160a01b03166020830152565b925050565b5060208201517f00000000000000000000000000000000000000000000000000000000000000001415610bd8565b610c7791923d8091833e61042e8183610952565b9038610bcd565b919082604091031261043d576020825192015190565b67ffffffffffffffff811161091f5760051b60200190565b8051821015610cc05760209160051b010190565b634e487b7160e01b600052603260045260246000fd5b6040516328c44a9960e21b815260048101919091526000816024817f00000000000000000000000000000000000000000000000000000000000000006001600160a01b03165afa9081156103b957600091610dbc575b508051151580610d8f575b15610d5d57610120610d5491015160208082518301019101610aed565b50509192909190565b60405162461bcd60e51b815260206004820152600a6024820152691b9bdd0818481b1a5cdd60b21b6044820152606490fd5b5060208101517f000000000000000000000000000000000000000000000000000000000000000014610d37565b610dd191503d806000833e61042e8183610952565b38610d2c565b9092916060610120604051610deb81610935565b60008152600060208201526000604082015260008382015260006080820152600060a0820152600060c0820152600060e082015260006101008201520152604051906328c44a9960e21b8252600482015260008160248160018060a01b037f0000000000000000000000000000000000000000000000000000000000000000165afa9081156103b957600091610fd1575b50809360208201517f000000000000000000000000000000000000000000000000000000000000000003610f995760e08201516001600160a01b03908116911603610f675767ffffffffffffffff608082015116610f3257610120610eec91015160208082518301019101610c7e565b5003610ef457565b60405162461bcd60e51b8152602060048201526016602482015275195b9d1c9e481b9bdd081a5b881d1a1a5cc81b1a5cdd60521b6044820152606490fd5b60405162461bcd60e51b815260206004820152600d60248201526c195b9d1c9e481c995d9bdad959609a1b6044820152606490fd5b60405162461bcd60e51b815260206004820152600a60248201526977726f6e67206c656e7360b01b6044820152606490fd5b60405162461bcd60e51b815260206004820152601060248201526f6e6f742061206c69737420656e74727960801b6044820152606490fd5b610fe4913d8091833e61042e8183610952565b38610e7c56fea2646970667358221220e26f976604037c957d8877cad0128fc9e07140754c6f9a694131fd570cd7acdb64736f6c634300081a0033",
  "devdoc": {
    "details": "Stateless view contract over ListEntryResolver + EAS. Redeployable without      changing any schema UID (address not baked into any schema). ADR-0044 §5.      getMode() reads LIST attestation directly from EAS (schema-check BEFORE decode).      entries() reads EntryRecord[] from resolver storage — zero per-entry EAS calls.      Typed accessors are safe-by-construction: validate schema, lens, active, listUID, mode.",
    "kind": "dev",
    "methods": {},
    "title": "ListReader",
    "version": 1
  },
  "userdoc": {
    "kind": "user",
    "methods": {
      "countOf(bytes32,address,bytes32)": {
        "notice": "O(1) membership check. Compare to 0 explicitly — no isMember bool (ADR-0044 §5). identityKey: bytes32(uint160(addr)) for ADDR, UID for SCHEMA, member key for ANY."
      },
      "entries(bytes32,address,uint256,uint256)": {
        "notice": "Page of active entries (insertion order). No per-entry eas.getAttestation() — all fields read inline from EntryRecord[]. Pagination is NOT snapshot-isolated."
      },
      "getMode(bytes32)": {
        "notice": "Decode LIST attestation directly from EAS. Schema-checked BEFORE data decode. Works for empty lists. Returns exists=false for non-LIST UIDs."
      },
      "length(bytes32,address)": {
        "notice": "Number of active entries for (list, attester). O(1)."
      }
    },
    "version": 1
  },
  "storageLayout": {
    "storage": [],
    "types": null
  }
}